{
  "_format": "hh-sol-artifact-1",
  "contractName": "CommunityFund",
  "sourceName": "contracts/sample/CommunityFund.sol",
  "abi": [
    {
      "inputs": [
        {
          "internalType": "address",
          "name": "sponsorshipQueue_",
          "type": "address"
        }
      ],
      "stateMutability": "nonpayable",
      "type": "constructor"
    },
    {
      "inputs": [
        {
          "internalType": "uint256",
          "name": "",
          "type": "uint256"
        }
      ],
      "name": "InsufficientFunds",
      "type": "error"
    },
    {
      "anonymous": false,
      "inputs": [
        {
          "indexed": false,
          "internalType": "address",
          "name": "",
          "type": "address"
        },
        {
          "indexed": false,
          "internalType": "uint256",
          "name": "",
          "type": "uint256"
        }
      ],
      "name": "Received",
      "type": "event"
    },
    {
      "inputs": [],
      "name": "fundSponsorship",
      "outputs": [],
      "stateMutability": "nonpayable",
      "type": "function"
    },
    {
      "inputs": [],
      "name": "sponsorshipQueue",
      "outputs": [
        {
          "internalType": "contract ISponsorshipQueue",
          "name": "",
          "type": "address"
        }
      ],
      "stateMutability": "view",
      "type": "function"
    },
    {
      "stateMutability": "payable",
      "type": "receive"
    }
  ],
  "bytecode": "0x60a0604052348015600f57600080fd5b506040516102dc3803806102dc833981016040819052602c91603c565b6001600160a01b0316608052606a565b600060208284031215604d57600080fd5b81516001600160a01b0381168114606357600080fd5b9392505050565b60805161024b6100916000396000818160830152818160dc0152610187015261024b6000f3fe60806040526004361061002d5760003560e01c8063177df86b14610071578063e0dca47b146100c157600080fd5b3661006c57604080513381523460208201527f88a5966d370b9919b20f3e2c13ff65706f196a4e32cc2c12bf57088f88525874910160405180910390a1005b600080fd5b34801561007d57600080fd5b506100a57f000000000000000000000000000000000000000000000000000000000000000081565b6040516001600160a01b03909116815260200160405180910390f35b3480156100cd57600080fd5b506100d66100d8565b005b60007f00000000000000000000000000000000000000000000000000000000000000006001600160a01b031663d6ed2f066040518163ffffffff1660e01b8152600401602060405180830381865afa158015610138573d6000803e3d6000fd5b505050506040513d601f19601f8201168201806040525081019061015c91906101fc565b905080471015610185576040516365bc667160e11b815247600482015260240160405180910390fd5b7f00000000000000000000000000000000000000000000000000000000000000006001600160a01b0316636e28e29c826040518263ffffffff1660e01b81526004016000604051808303818588803b1580156101e057600080fd5b505af11580156101f4573d6000803e3d6000fd5b505050505050565b60006020828403121561020e57600080fd5b505191905056fea2646970667358221220acd31da1b5944b09d7ca6bf92d04b61ab5b0d90e5cd0348c3a9c7e2b6bdebca164736f6c63430008210033",
  "linkReferences": {},
  "deployedLinkReferences": {}
}