{
  "_format": "hh-sol-artifact-1",
  "contractName": "DistributionQueue",
  "sourceName": "contracts/DistributionQueue.sol",
  "abi": [
    {
      "inputs": [
        {
          "internalType": "address",
          "name": "languages_",
          "type": "address"
        }
      ],
      "stateMutability": "nonpayable",
      "type": "constructor"
    },
    {
      "inputs": [],
      "name": "InvalidLanguageCode",
      "type": "error"
    },
    {
      "anonymous": false,
      "inputs": [
        {
          "indexed": false,
          "internalType": "uint24",
          "name": "queueNumber",
          "type": "uint24"
        },
        {
          "indexed": true,
          "internalType": "address",
          "name": "distributor",
          "type": "address"
        }
      ],
      "name": "DistributionAdded",
      "type": "event"
    },
    {
      "anonymous": false,
      "inputs": [
        {
          "indexed": false,
          "internalType": "address",
          "name": "",
          "type": "address"
        }
      ],
      "name": "LanguagesUpdated",
      "type": "event"
    },
    {
      "anonymous": false,
      "inputs": [
        {
          "indexed": false,
          "internalType": "address",
          "name": "",
          "type": "address"
        }
      ],
      "name": "OwnerUpdated",
      "type": "event"
    },
    {
      "anonymous": false,
      "inputs": [
        {
          "indexed": false,
          "internalType": "address",
          "name": "",
          "type": "address"
        }
      ],
      "name": "QueueHandlerUpdated",
      "type": "event"
    },
    {
      "inputs": [
        {
          "internalType": "string",
          "name": "languageCode",
          "type": "string"
        },
        {
          "internalType": "string",
          "name": "androidId",
          "type": "string"
        }
      ],
      "name": "addDistribution",
      "outputs": [],
      "stateMutability": "nonpayable",
      "type": "function"
    },
    {
      "inputs": [],
      "name": "dequeue",
      "outputs": [
        {
          "components": [
            {
              "internalType": "string",
              "name": "languageCode",
              "type": "string"
            },
            {
              "internalType": "string",
              "name": "androidId",
              "type": "string"
            },
            {
              "internalType": "uint256",
              "name": "timestamp",
              "type": "uint256"
            },
            {
              "internalType": "address",
              "name": "distributor",
              "type": "address"
            }
          ],
          "internalType": "struct Distribution",
          "name": "",
          "type": "tuple"
        }
      ],
      "stateMutability": "nonpayable",
      "type": "function"
    },
    {
      "inputs": [],
      "name": "getLength",
      "outputs": [
        {
          "internalType": "uint256",
          "name": "",
          "type": "uint256"
        }
      ],
      "stateMutability": "view",
      "type": "function"
    },
    {
      "inputs": [],
      "name": "languages",
      "outputs": [
        {
          "internalType": "contract ILanguages",
          "name": "",
          "type": "address"
        }
      ],
      "stateMutability": "view",
      "type": "function"
    },
    {
      "inputs": [],
      "name": "owner",
      "outputs": [
        {
          "internalType": "address",
          "name": "",
          "type": "address"
        }
      ],
      "stateMutability": "view",
      "type": "function"
    },
    {
      "inputs": [],
      "name": "protocolVersion",
      "outputs": [
        {
          "internalType": "string",
          "name": "",
          "type": "string"
        }
      ],
      "stateMutability": "pure",
      "type": "function"
    },
    {
      "inputs": [
        {
          "internalType": "uint24",
          "name": "",
          "type": "uint24"
        }
      ],
      "name": "queue",
      "outputs": [
        {
          "internalType": "string",
          "name": "languageCode",
          "type": "string"
        },
        {
          "internalType": "string",
          "name": "androidId",
          "type": "string"
        },
        {
          "internalType": "uint256",
          "name": "timestamp",
          "type": "uint256"
        },
        {
          "internalType": "address",
          "name": "distributor",
          "type": "address"
        }
      ],
      "stateMutability": "view",
      "type": "function"
    },
    {
      "inputs": [],
      "name": "queueHandler",
      "outputs": [
        {
          "internalType": "address",
          "name": "",
          "type": "address"
        }
      ],
      "stateMutability": "view",
      "type": "function"
    },
    {
      "inputs": [],
      "name": "queueNumberFront",
      "outputs": [
        {
          "internalType": "uint24",
          "name": "",
          "type": "uint24"
        }
      ],
      "stateMutability": "view",
      "type": "function"
    },
    {
      "inputs": [],
      "name": "queueNumberNext",
      "outputs": [
        {
          "internalType": "uint24",
          "name": "",
          "type": "uint24"
        }
      ],
      "stateMutability": "view",
      "type": "function"
    },
    {
      "inputs": [
        {
          "internalType": "address",
          "name": "languages_",
          "type": "address"
        }
      ],
      "name": "updateLanguages",
      "outputs": [],
      "stateMutability": "nonpayable",
      "type": "function"
    },
    {
      "inputs": [
        {
          "internalType": "address",
          "name": "owner_",
          "type": "address"
        }
      ],
      "name": "updateOwner",
      "outputs": [],
      "stateMutability": "nonpayable",
      "type": "function"
    },
    {
      "inputs": [
        {
          "internalType": "address",
          "name": "queueHandler_",
          "type": "address"
        }
      ],
      "name": "updateQueueHandler",
      "outputs": [],
      "stateMutability": "nonpayable",
      "type": "function"
    }
  ],
  "bytecode": "0x60806040526004805465ffffffffffff19166301000001179055348015602457600080fd5b50604051610faa380380610faa8339810160408190526041916073565b60008054336001600160a01b031991821617909155600180549091166001600160a01b039290921691909117905560a1565b600060208284031215608457600080fd5b81516001600160a01b0381168114609a57600080fd5b9392505050565b610efa806100b06000396000f3fe608060405234801561001057600080fd5b50600436106100cf5760003560e01c8063880cdc311161008c578063957908d111610066578063957908d1146101c5578063be1c766b146101da578063bea6a849146101f0578063c62a73171461020357600080fd5b8063880cdc311461018c5780638849a4331461019f5780638da5cb5b146101b257600080fd5b806313ae19b3146100d45780631a7d661f146100e95780632972a64c146100fc5780632ae9c6001461012c5780632fb0b65914610153578063423e364914610176575b600080fd5b6100e76100e2366004610a9e565b610226565b005b6100e76100f7366004610b17565b6102f4565b60015461010f906001600160a01b031681565b6040516001600160a01b0390911681526020015b60405180910390f35b60408051808201825260058152640605c725c760db1b602082015290516101239190610bce565b6004546101629062ffffff1681565b60405162ffffff9091168152602001610123565b600454610162906301000000900462ffffff1681565b6100e761019a366004610a9e565b610475565b60025461010f906001600160a01b031681565b60005461010f906001600160a01b031681565b6101cd610530565b6040516101239190610be1565b6101e26107c0565b604051908152602001610123565b6100e76101fe366004610a9e565b6107e9565b610216610211366004610c46565b6108a8565b6040516101239493929190610c6b565b6000546001600160a01b0316331461029f5760405162461bcd60e51b815260206004820152603160248201527f4f6e6c7920746865206f776e65722063616e20736574207468652060717565756044820152706548616e646c657260206164647265737360781b60648201526084015b60405180910390fd5b600280546001600160a01b0319166001600160a01b0383169081179091556040519081527f05ec78f77a1d48e6e47c6b09252624424c3402b3a8e99a48e59f0d710d7e7742906020015b60405180910390a150565b60015460405163032ae28760e51b81526001600160a01b039091169063655c50e0906103269087908790600401610cb2565b602060405180830381865afa158015610343573d6000803e3d6000fd5b505050506040513d601f19601f820116820180604052508101906103679190610ce1565b610384576040516342330a5960e11b815260040160405180910390fd5b6040805160a06020601f87018190040282018101909252608081018581526000928291908890889081908501838280828437600092019190915250505090825250604080516020601f870181900481028201810190925285815291810191908690869081908401838280828437600092019190915250505090825250426020820152336040909101529050610418816109ea565b60045433907f1aec479b94f92c06208f368f87b1aceff711948fa282f8b23519e0fa4177681790610457906001906301000000900462ffffff16610d19565b60405162ffffff909116815260200160405180910390a25050505050565b6000546001600160a01b031633146104e25760405162461bcd60e51b815260206004820152602a60248201527f4f6e6c79207468652063757272656e74206f776e65722063616e207365742061604482015269103732bb9037bbb732b960b11b6064820152608401610296565b600080546001600160a01b0319166001600160a01b0383169081179091556040519081527f4ffd725fc4a22075e9ec71c59edf9c38cdeb588a91b24fc5b61388c5be41282b906020016102e9565b610564604051806080016040528060608152602001606081526020016000815260200160006001600160a01b031681525090565b6002546001600160a01b031633146105d75760405162461bcd60e51b815260206004820152603060248201527f4f6e6c79207468652071756575652068616e646c65722063616e2072656d6f7660448201526f652066726f6d2074686520717565756560801b6064820152608401610296565b60006105e16107c0565b1161061f5760405162461bcd60e51b815260206004820152600e60248201526d517565756520697320656d70747960901b6044820152606401610296565b60045462ffffff1660009081526003602052604080822081516080810190925280548290829061064e90610d3a565b80601f016020809104026020016040519081016040528092919081815260200182805461067a90610d3a565b80156106c75780601f1061069c576101008083540402835291602001916106c7565b820191906000526020600020905b8154815290600101906020018083116106aa57829003601f168201915b505050505081526020016001820180546106e090610d3a565b80601f016020809104026020016040519081016040528092919081815260200182805461070c90610d3a565b80156107595780601f1061072e57610100808354040283529160200191610759565b820191906000526020600020905b81548152906001019060200180831161073c57829003601f168201915b5050509183525050600282015460208201526003909101546001600160a01b03166040909101526004805491925060019160009061079d90849062ffffff16610d74565b92506101000a81548162ffffff021916908362ffffff1602179055508091505090565b6004546000906107df9062ffffff808216916301000000900416610d19565b62ffffff16905090565b6000546001600160a01b0316331461085a5760405162461bcd60e51b815260206004820152602e60248201527f4f6e6c7920746865206f776e65722063616e207365742074686520606c616e6760448201526d756167657360206164647265737360901b6064820152608401610296565b600180546001600160a01b0319166001600160a01b0383169081179091556040519081527fa27bcd9ea6a1be02da6027dac62bc65e5a0f8e180f47bc6e3bfbee065b69b4f7906020016102e9565b6003602052600090815260409020805481906108c390610d3a565b80601f01602080910402602001604051908101604052809291908181526020018280546108ef90610d3a565b801561093c5780601f106109115761010080835404028352916020019161093c565b820191906000526020600020905b81548152906001019060200180831161091f57829003601f168201915b50505050509080600101805461095190610d3a565b80601f016020809104026020016040519081016040528092919081815260200182805461097d90610d3a565b80156109ca5780601f1061099f576101008083540402835291602001916109ca565b820191906000526020600020905b8154815290600101906020018083116109ad57829003601f168201915b5050505060028301546003909301549192916001600160a01b0316905084565b6004546301000000900462ffffff16600090815260036020526040902081518291908190610a189082610e01565b5060208201516001820190610a2d9082610e01565b5060408201516002820155606090910151600391820180546001600160a01b0319166001600160a01b039092169190911790556004805460019290610a7f9084906301000000900462ffffff16610d74565b92506101000a81548162ffffff021916908362ffffff16021790555050565b600060208284031215610ab057600080fd5b81356001600160a01b0381168114610ac757600080fd5b9392505050565b60008083601f840112610ae057600080fd5b50813567ffffffffffffffff811115610af857600080fd5b602083019150836020828501011115610b1057600080fd5b9250929050565b60008060008060408587031215610b2d57600080fd5b843567ffffffffffffffff811115610b4457600080fd5b610b5087828801610ace565b909550935050602085013567ffffffffffffffff811115610b7057600080fd5b610b7c87828801610ace565b95989497509550505050565b6000815180845260005b81811015610bae57602081850181015186830182015201610b92565b506000602082860101526020601f19601f83011685010191505092915050565b602081526000610ac76020830184610b88565b602081526000825160806020840152610bfd60a0840182610b88565b90506020840151601f19848303016040850152610c1a8282610b88565b6040860151606086810191909152909501516001600160a01b0316608090940193909352509192915050565b600060208284031215610c5857600080fd5b813562ffffff81168114610ac757600080fd5b608081526000610c7e6080830187610b88565b8281036020840152610c908187610b88565b604084019590955250506001600160a01b039190911660609091015292915050565b60208152816020820152818360408301376000818301604090810191909152601f909201601f19160101919050565b600060208284031215610cf357600080fd5b81518015158114610ac757600080fd5b634e487b7160e01b600052601160045260246000fd5b62ffffff8281168282160390811115610d3457610d34610d03565b92915050565b600181811c90821680610d4e57607f821691505b602082108103610d6e57634e487b7160e01b600052602260045260246000fd5b50919050565b62ffffff8181168382160190811115610d3457610d34610d03565b634e487b7160e01b600052604160045260246000fd5b601f821115610dfc5782821115610dfc57806000526020600020601f840160051c6020851015610dd3575060005b90810190601f840160051c0360005b81811015610df857600083820155600101610de2565b5050505b505050565b815167ffffffffffffffff811115610e1b57610e1b610d8f565b610e2f81610e298454610d3a565b84610da5565b6020601f821160018114610e635760008315610e4b5750848201515b600019600385901b1c1916600184901b178455610ebd565b600084815260208120601f198516915b82811015610e935787850151825560209485019460019092019101610e73565b5084821015610eb15786840151600019600387901b60f8161c191681555b505060018360011b0184555b505050505056fea2646970667358221220922756beb76c12b71934a289a3131d1e415f0a51c603fe6d8d89a27af2aeee4f64736f6c63430008210033",
  "linkReferences": {},
  "deployedLinkReferences": {}
}