{
  "_format": "hh-sol-artifact-1",
  "contractName": "DistributionImporter",
  "sourceName": "contracts/sample/DistributionImporter.sol",
  "abi": [
    {
      "inputs": [
        {
          "internalType": "address",
          "name": "distributionQueue_",
          "type": "address"
        }
      ],
      "stateMutability": "nonpayable",
      "type": "constructor"
    },
    {
      "anonymous": false,
      "inputs": [
        {
          "indexed": true,
          "internalType": "address",
          "name": "importer",
          "type": "address"
        },
        {
          "indexed": false,
          "internalType": "string",
          "name": "languageCode",
          "type": "string"
        },
        {
          "indexed": false,
          "internalType": "string",
          "name": "androidId",
          "type": "string"
        }
      ],
      "name": "DistributionImported",
      "type": "event"
    },
    {
      "anonymous": false,
      "inputs": [
        {
          "indexed": true,
          "internalType": "address",
          "name": "processor",
          "type": "address"
        },
        {
          "indexed": false,
          "internalType": "uint256",
          "name": "count",
          "type": "uint256"
        }
      ],
      "name": "DistributionsProcessed",
      "type": "event"
    },
    {
      "inputs": [
        {
          "internalType": "uint256",
          "name": "",
          "type": "uint256"
        }
      ],
      "name": "androidIds",
      "outputs": [
        {
          "internalType": "string",
          "name": "",
          "type": "string"
        }
      ],
      "stateMutability": "view",
      "type": "function"
    },
    {
      "inputs": [],
      "name": "distributionQueue",
      "outputs": [
        {
          "internalType": "contract IDistributionQueue",
          "name": "",
          "type": "address"
        }
      ],
      "stateMutability": "view",
      "type": "function"
    },
    {
      "inputs": [
        {
          "internalType": "string",
          "name": "languageCode",
          "type": "string"
        },
        {
          "internalType": "string",
          "name": "androidId",
          "type": "string"
        }
      ],
      "name": "importDistribution",
      "outputs": [],
      "stateMutability": "nonpayable",
      "type": "function"
    },
    {
      "inputs": [
        {
          "internalType": "uint256",
          "name": "",
          "type": "uint256"
        }
      ],
      "name": "languageCodes",
      "outputs": [
        {
          "internalType": "string",
          "name": "",
          "type": "string"
        }
      ],
      "stateMutability": "view",
      "type": "function"
    },
    {
      "inputs": [],
      "name": "processDistributions",
      "outputs": [],
      "stateMutability": "nonpayable",
      "type": "function"
    }
  ],
  "bytecode": "0x60a0604052348015600f57600080fd5b506040516108ed3803806108ed833981016040819052602c91603c565b6001600160a01b0316608052606a565b600060208284031215604d57600080fd5b81516001600160a01b0381168114606357600080fd5b9392505050565b60805161086261008b600039600081816061015261010a01526108626000f3fe608060405234801561001057600080fd5b50600436106100575760003560e01c806365772def1461005c578063b1575b2e146100a0578063b42fc302146100aa578063c224e060146100ca578063fe1da449146100dd575b600080fd5b6100837f000000000000000000000000000000000000000000000000000000000000000081565b6040516001600160a01b0390911681526020015b60405180910390f35b6100a86100f0565b005b6100bd6100b8366004610434565b610225565b604051610097919061044d565b6100a86100d83660046104e4565b6102d1565b6100bd6100eb366004610434565b610396565b60005b6000546101029060019061056b565b81116101d3577f00000000000000000000000000000000000000000000000000000000000000006001600160a01b0316631a7d661f6000838154811061014a5761014a610584565b906000526020600020016001848154811061016757610167610584565b906000526020600020016040518363ffffffff1660e01b815260040161018e929190610657565b600060405180830381600087803b1580156101a857600080fd5b505af11580156101bc573d6000803e3d6000fd5b5050505080806101cb90610685565b9150506100f3565b5060005460405190815233907f99c0456ae48c50fee724b8f5ba40df63fa738b80533d3c858480083cce263d3c9060200160405180910390a26102176000806103a6565b610223600160006103a6565b565b6001818154811061023557600080fd5b9060005260206000200160009150905080546102509061059a565b80601f016020809104026020016040519081016040528092919081815260200182805461027c9061059a565b80156102c95780601f1061029e576101008083540402835291602001916102c9565b820191906000526020600020905b8154815290600101906020018083116102ac57829003601f168201915b505050505081565b600080546001810182559080527f290decd9548b62a8d60345a988386fc84ba6bc95484008f6362f93160ef3e5630161030b848683610710565b506001805480820182556000919091527fb10e2d527612073b26eecdfd717e6a320cf44b4afac2b0732d9fcbe2b7fa0cf601610348828483610710565b50336001600160a01b03167f7e991bfff5f2dab540dcad191be75ef7fd98703cb87c098518d4f565781a3f0d8585858560405161038894939291906107fa565b60405180910390a250505050565b6000818154811061023557600080fd5b50805460008255906000526020600020906103c191906103c4565b50565b60005b808211156103e4576103dc81840160006103e9565b6001016103c7565b505090565b5080546103f59061059a565b6000825580601f10610405575050565b601f0160209004906000526020600020906103c1919060005b808211156103e45760008184015560010161041e565b60006020828403121561044657600080fd5b5035919050565b602081526000825180602084015260005b8181101561047b576020818601810151604086840101520161045e565b506000604082850101526040601f19601f83011684010191505092915050565b60008083601f8401126104ad57600080fd5b50813567ffffffffffffffff8111156104c557600080fd5b6020830191508360208285010111156104dd57600080fd5b9250929050565b600080600080604085870312156104fa57600080fd5b843567ffffffffffffffff81111561051157600080fd5b61051d8782880161049b565b909550935050602085013567ffffffffffffffff81111561053d57600080fd5b6105498782880161049b565b95989497509550505050565b634e487b7160e01b600052601160045260246000fd5b8181038181111561057e5761057e610555565b92915050565b634e487b7160e01b600052603260045260246000fd5b600181811c908216806105ae57607f821691505b6020821081036105ce57634e487b7160e01b600052602260045260246000fd5b50919050565b600081546105e18161059a565b8085526001821680156105fb57600181146106175761064e565b60ff1983166020870152602082151560051b870101935061064e565b84600052602060002060005b838110156106455781546020828a010152600182019150602081019050610623565b87016020019450505b50505092915050565b60408152600061066a60408301856105d4565b828103602084015261067c81856105d4565b95945050505050565b60006001820161069757610697610555565b5060010190565b634e487b7160e01b600052604160045260246000fd5b601f82111561070b578282111561070b57806000526020600020601f840160051c60208510156106e2575060005b90810190601f840160051c0360005b81811015610707576000838201556001016106f1565b5050505b505050565b67ffffffffffffffff8311156107285761072861069e565b61073c83610736835461059a565b836106b4565b6000601f84116001811461077057600085156107585750838201355b600019600387901b1c1916600186901b1783556107ca565b600083815260209020601f19861690835b828110156107a15786850135825560209485019460019092019101610781565b50868210156107be5760001960f88860031b161c19848701351681555b505060018560011b0183555b5050505050565b81835281816020850137506000828201602090810191909152601f909101601f19169091010190565b60408152600061080e6040830186886107d1565b82810360208401526108218185876107d1565b97965050505050505056fea26469706673582212201a75aa9ac639fd72d1e7efed816aed6cc196273afa132ac9fadf62f62cd1767664736f6c63430008210033",
  "linkReferences": {},
  "deployedLinkReferences": {}
}