{
  "_format": "hh-sol-artifact-1",
  "contractName": "DistributionVerifier",
  "sourceName": "contracts/DistributionVerifier.sol",
  "abi": [
    {
      "inputs": [
        {
          "internalType": "address",
          "name": "roles_",
          "type": "address"
        }
      ],
      "stateMutability": "nonpayable",
      "type": "constructor"
    },
    {
      "anonymous": false,
      "inputs": [
        {
          "indexed": false,
          "internalType": "uint24",
          "name": "queueNumber",
          "type": "uint24"
        },
        {
          "indexed": true,
          "internalType": "address",
          "name": "operator",
          "type": "address"
        }
      ],
      "name": "DistributionApproved",
      "type": "event"
    },
    {
      "anonymous": false,
      "inputs": [
        {
          "indexed": false,
          "internalType": "uint24",
          "name": "queueNumber",
          "type": "uint24"
        },
        {
          "indexed": true,
          "internalType": "address",
          "name": "operator",
          "type": "address"
        }
      ],
      "name": "DistributionRejected",
      "type": "event"
    },
    {
      "anonymous": false,
      "inputs": [
        {
          "indexed": false,
          "internalType": "address",
          "name": "owner",
          "type": "address"
        }
      ],
      "name": "OwnerUpdated",
      "type": "event"
    },
    {
      "anonymous": false,
      "inputs": [
        {
          "indexed": false,
          "internalType": "address",
          "name": "roles",
          "type": "address"
        }
      ],
      "name": "RolesUpdated",
      "type": "event"
    },
    {
      "inputs": [
        {
          "internalType": "uint24",
          "name": "",
          "type": "uint24"
        }
      ],
      "name": "approvalCount",
      "outputs": [
        {
          "internalType": "uint8",
          "name": "",
          "type": "uint8"
        }
      ],
      "stateMutability": "view",
      "type": "function"
    },
    {
      "inputs": [
        {
          "internalType": "uint24",
          "name": "queueNumber",
          "type": "uint24"
        }
      ],
      "name": "isDistributionApproved",
      "outputs": [
        {
          "internalType": "bool",
          "name": "",
          "type": "bool"
        }
      ],
      "stateMutability": "view",
      "type": "function"
    },
    {
      "inputs": [
        {
          "internalType": "uint24",
          "name": "queueNumber",
          "type": "uint24"
        }
      ],
      "name": "isDistributionRejected",
      "outputs": [
        {
          "internalType": "bool",
          "name": "",
          "type": "bool"
        }
      ],
      "stateMutability": "view",
      "type": "function"
    },
    {
      "inputs": [],
      "name": "owner",
      "outputs": [
        {
          "internalType": "address",
          "name": "",
          "type": "address"
        }
      ],
      "stateMutability": "view",
      "type": "function"
    },
    {
      "inputs": [],
      "name": "protocolVersion",
      "outputs": [
        {
          "internalType": "string",
          "name": "",
          "type": "string"
        }
      ],
      "stateMutability": "pure",
      "type": "function"
    },
    {
      "inputs": [
        {
          "internalType": "uint24",
          "name": "",
          "type": "uint24"
        }
      ],
      "name": "rejectionCount",
      "outputs": [
        {
          "internalType": "uint8",
          "name": "",
          "type": "uint8"
        }
      ],
      "stateMutability": "view",
      "type": "function"
    },
    {
      "inputs": [],
      "name": "roles",
      "outputs": [
        {
          "internalType": "contract IRoles",
          "name": "",
          "type": "address"
        }
      ],
      "stateMutability": "view",
      "type": "function"
    },
    {
      "inputs": [
        {
          "internalType": "address",
          "name": "owner_",
          "type": "address"
        }
      ],
      "name": "updateOwner",
      "outputs": [],
      "stateMutability": "nonpayable",
      "type": "function"
    },
    {
      "inputs": [
        {
          "internalType": "address",
          "name": "roles_",
          "type": "address"
        }
      ],
      "name": "updateRoles",
      "outputs": [],
      "stateMutability": "nonpayable",
      "type": "function"
    },
    {
      "inputs": [
        {
          "internalType": "uint24",
          "name": "queueNumber",
          "type": "uint24"
        },
        {
          "internalType": "bool",
          "name": "approved",
          "type": "bool"
        }
      ],
      "name": "verifyDistribution",
      "outputs": [],
      "stateMutability": "nonpayable",
      "type": "function"
    }
  ],
  "bytecode": "0x6080604052348015600f57600080fd5b50604051610864380380610864833981016040819052602c91605e565b60008054336001600160a01b031991821617909155600180549091166001600160a01b0392909216919091179055608c565b600060208284031215606f57600080fd5b81516001600160a01b0381168114608557600080fd5b9392505050565b6107c98061009b6000396000f3fe608060405234801561001057600080fd5b506004361061009e5760003560e01c80638da5cb5b116100665780638da5cb5b1461016b5780639781e3b51461017e5780639f3c6819146101b3578063cf714d3b146101d6578063d01bb06e146101e957600080fd5b80632385ac3b146100a35780632ae9c600146100f1578063392f5f64146101185780633a80760a14610143578063880cdc3114610158575b600080fd5b6100dc6100b1366004610668565b62ffffff1660009081526002602090815260408083205460039092529091205460ff91821691161190565b60405190151581526020015b60405180910390f35b60408051808201825260058152640605c725c760db1b602082015290516100e8919061068a565b60015461012b906001600160a01b031681565b6040516001600160a01b0390911681526020016100e8565b6101566101513660046106d8565b610222565b005b6101566101663660046106d8565b6102e9565b60005461012b906001600160a01b031681565b6101a161018c366004610668565b60026020526000908152604090205460ff1681565b60405160ff90911681526020016100e8565b6101a16101c1366004610668565b60036020526000908152604090205460ff1681565b6101566101e4366004610712565b6103a4565b6100dc6101f7366004610668565b62ffffff1660009081526003602090815260408083205460029092529091205460ff91821691161190565b6000546001600160a01b031633146102945760405162461bcd60e51b815260206004820152602a60248201527f4f6e6c7920746865206f776e65722063616e20736574207468652060726f6c656044820152697360206164647265737360b01b60648201526084015b60405180910390fd5b600180546001600160a01b0319166001600160a01b0383169081179091556040519081527f0fb53df5eaab7f6dbb10bfa2951418c0e50c8f11ea7298e2a159c0022b848005906020015b60405180910390a150565b6000546001600160a01b031633146103565760405162461bcd60e51b815260206004820152602a60248201527f4f6e6c79207468652063757272656e74206f776e65722063616e207365742061604482015269103732bb9037bbb732b960b11b606482015260840161028b565b600080546001600160a01b0319166001600160a01b0383169081179091556040519081527f4ffd725fc4a22075e9ec71c59edf9c38cdeb588a91b24fc5b61388c5be41282b906020016102de565b600154604051633e800ddf60e11b81523360048201526001600160a01b0390911690637d001bbe90602401602060405180830381865afa1580156103ec573d6000803e3d6000fd5b505050506040513d601f19601f820116820180604052508101906104109190610749565b6104785760405162461bcd60e51b815260206004820152603360248201527f4f6e6c792044414f206f70657261746f72732063616e20617070726f76652f72604482015272656a65637420646973747269627574696f6e7360681b606482015260840161028b565b62ffffff8216600090815260046020908152604080832033845290915290205460ff16156105025760405162461bcd60e51b815260206004820152603160248201527f566572696669636174696f6e20616c72656164792065786973747320666f72206044820152703a3434b9902220a79037b832b930ba37b960791b606482015260840161028b565b80156105b05762ffffff8216600090815260026020526040812080546001929061053090849060ff16610766565b825460ff9182166101009390930a92830291909202199091161790555062ffffff821660008181526004602090815260408083203380855290835292819020805460ff191660011790555192835290917f6d16b07b3bd2b3b396d53ae8a6a61b0aa8110181007d5928f49fd30963f912ed91015b60405180910390a25050565b62ffffff821660009081526003602052604081208054600192906105d890849060ff16610766565b825460ff9182166101009390930a92830291909202199091161790555062ffffff821660008181526004602090815260408083203380855290835292819020805460ff191660011790555192835290917fb8de99488aba4b1b8c55d235a0627d4a50ecbf34e7bf81a7c03fa28ba983cf2c91016105a4565b803562ffffff8116811461066357600080fd5b919050565b60006020828403121561067a57600080fd5b61068382610650565b9392505050565b602081526000825180602084015260005b818110156106b8576020818601810151604086840101520161069b565b506000604082850101526040601f19601f83011684010191505092915050565b6000602082840312156106ea57600080fd5b81356001600160a01b038116811461068357600080fd5b801515811461070f57600080fd5b50565b6000806040838503121561072557600080fd5b61072e83610650565b9150602083013561073e81610701565b809150509250929050565b60006020828403121561075b57600080fd5b815161068381610701565b60ff818116838216019081111561078d57634e487b7160e01b600052601160045260246000fd5b9291505056fea264697066735822122038632d76b7bc2d4ba79e5ecf843d0afb7749fbbc6de2d1bcc5aaa3770948302264736f6c63430008210033",
  "linkReferences": {},
  "deployedLinkReferences": {}
}