{
  "_format": "hh-sol-artifact-1",
  "contractName": "QueueHandler",
  "sourceName": "contracts/QueueHandler.sol",
  "abi": [
    {
      "inputs": [
        {
          "internalType": "address",
          "name": "sponsorshipQueue_",
          "type": "address"
        },
        {
          "internalType": "address",
          "name": "distributionQueue_",
          "type": "address"
        },
        {
          "internalType": "address",
          "name": "distributionVerifier_",
          "type": "address"
        }
      ],
      "stateMutability": "nonpayable",
      "type": "constructor"
    },
    {
      "anonymous": false,
      "inputs": [
        {
          "indexed": false,
          "internalType": "address",
          "name": "",
          "type": "address"
        }
      ],
      "name": "DistributionVerifierUpdated",
      "type": "event"
    },
    {
      "anonymous": false,
      "inputs": [
        {
          "indexed": false,
          "internalType": "address",
          "name": "",
          "type": "address"
        }
      ],
      "name": "OwnerUpdated",
      "type": "event"
    },
    {
      "anonymous": false,
      "inputs": [
        {
          "indexed": false,
          "internalType": "uint24",
          "name": "distributionQueueNumber",
          "type": "uint24"
        },
        {
          "indexed": false,
          "internalType": "uint24",
          "name": "sponsorshipQueueNumber",
          "type": "uint24"
        },
        {
          "indexed": true,
          "internalType": "address",
          "name": "operator",
          "type": "address"
        }
      ],
      "name": "QueuePairProcessed",
      "type": "event"
    },
    {
      "anonymous": false,
      "inputs": [
        {
          "indexed": false,
          "internalType": "uint24",
          "name": "queueNumber",
          "type": "uint24"
        },
        {
          "indexed": true,
          "internalType": "address",
          "name": "operator",
          "type": "address"
        }
      ],
      "name": "RejectedDistributionRemoved",
      "type": "event"
    },
    {
      "anonymous": false,
      "inputs": [
        {
          "indexed": false,
          "internalType": "address",
          "name": "",
          "type": "address"
        }
      ],
      "name": "RolesUpdated",
      "type": "event"
    },
    {
      "inputs": [],
      "name": "distributionQueue",
      "outputs": [
        {
          "internalType": "contract DistributionQueue",
          "name": "",
          "type": "address"
        }
      ],
      "stateMutability": "view",
      "type": "function"
    },
    {
      "inputs": [],
      "name": "distributionVerifier",
      "outputs": [
        {
          "internalType": "contract IDistributionVerifier",
          "name": "",
          "type": "address"
        }
      ],
      "stateMutability": "view",
      "type": "function"
    },
    {
      "inputs": [],
      "name": "owner",
      "outputs": [
        {
          "internalType": "address",
          "name": "",
          "type": "address"
        }
      ],
      "stateMutability": "view",
      "type": "function"
    },
    {
      "inputs": [],
      "name": "processQueuePair",
      "outputs": [],
      "stateMutability": "nonpayable",
      "type": "function"
    },
    {
      "inputs": [],
      "name": "protocolVersion",
      "outputs": [
        {
          "internalType": "string",
          "name": "",
          "type": "string"
        }
      ],
      "stateMutability": "pure",
      "type": "function"
    },
    {
      "inputs": [],
      "name": "removeRejectedDistribution",
      "outputs": [],
      "stateMutability": "nonpayable",
      "type": "function"
    },
    {
      "inputs": [],
      "name": "sponsorshipQueue",
      "outputs": [
        {
          "internalType": "contract SponsorshipQueue",
          "name": "",
          "type": "address"
        }
      ],
      "stateMutability": "view",
      "type": "function"
    },
    {
      "inputs": [
        {
          "internalType": "address",
          "name": "distributionVerifier_",
          "type": "address"
        }
      ],
      "name": "updateDistributionVerifier",
      "outputs": [],
      "stateMutability": "nonpayable",
      "type": "function"
    },
    {
      "inputs": [
        {
          "internalType": "address",
          "name": "owner_",
          "type": "address"
        }
      ],
      "name": "updateOwner",
      "outputs": [],
      "stateMutability": "nonpayable",
      "type": "function"
    }
  ],
  "bytecode": "0x60c060405234801561001057600080fd5b50604051610fdb380380610fdb83398101604081905261002f91610086565b600080546001600160a01b031990811633179091556001600160a01b0393841660805291831660a052600180549190931691161790556100c9565b80516001600160a01b038116811461008157600080fd5b919050565b60008060006060848603121561009b57600080fd5b6100a48461006a565b92506100b26020850161006a565b91506100c06040850161006a565b90509250925092565b60805160a051610ea86101336000396000818161012d0152818161018c015281816102360152818161046c015281816106eb0152818161078c01526108fa015260008181609d0152818161038d015281816104f80152818161057e01526106440152610ea86000f3fe608060405234801561001057600080fd5b50600436106100935760003560e01c80634de6087c116100665780634de6087c1461011557806365772def14610128578063880cdc311461014f5780638da5cb5b14610162578063a815f7a21461017557600080fd5b8063177df86b146100985780632603b407146100dc5780632ae9c600146100e65780633b49a26d1461010d575b600080fd5b6100bf7f000000000000000000000000000000000000000000000000000000000000000081565b6040516001600160a01b0390911681526020015b60405180910390f35b6100e4610188565b005b60408051808201825260058152640605c725c760db1b602082015290516100d39190610b73565b6100e46106e7565b6100e4610123366004610bbe565b6109bf565b6100bf7f000000000000000000000000000000000000000000000000000000000000000081565b6100e461015d366004610bbe565b610a94565b6000546100bf906001600160a01b031681565b6001546100bf906001600160a01b031681565b60007f00000000000000000000000000000000000000000000000000000000000000006001600160a01b031663be1c766b6040518163ffffffff1660e01b8152600401602060405180830381865afa1580156101e8573d6000803e3d6000fd5b505050506040513d601f19601f8201168201806040525081019061020c9190610be2565b116102325760405162461bcd60e51b815260040161022990610bfb565b60405180910390fd5b60007f00000000000000000000000000000000000000000000000000000000000000006001600160a01b0316632fb0b6596040518163ffffffff1660e01b8152600401602060405180830381865afa158015610292573d6000803e3d6000fd5b505050506040513d601f19601f820116820180604052508101906102b69190610c41565b60015460405163680dd83760e11b815262ffffff831660048201529192506001600160a01b03169063d01bb06e90602401602060405180830381865afa158015610304573d6000803e3d6000fd5b505050506040513d601f19601f820116820180604052508101906103289190610c66565b6103895760405162461bcd60e51b815260206004820152602c60248201527f4f6e6c7920617070726f76656420646973747269627574696f6e732063616e2060448201526b1899481c1c9bd8d95cdcd95960a21b6064820152608401610229565b60007f00000000000000000000000000000000000000000000000000000000000000006001600160a01b031663be1c766b6040518163ffffffff1660e01b8152600401602060405180830381865afa1580156103e9573d6000803e3d6000fd5b505050506040513d601f19601f8201168201806040525081019061040d9190610be2565b116104685760405162461bcd60e51b815260206004820152602560248201527f5468652073706f6e736f72736869702071756575652063616e6e6f7420626520604482015264656d70747960d81b6064820152608401610229565b60007f00000000000000000000000000000000000000000000000000000000000000006001600160a01b031663957908d16040518163ffffffff1660e01b81526004016000604051808303816000875af11580156104ca573d6000803e3d6000fd5b505050506040513d6000823e601f3d908101601f191682016040526104f29190810190610d52565b905060007f00000000000000000000000000000000000000000000000000000000000000006001600160a01b0316632fb0b6596040518163ffffffff1660e01b8152600401602060405180830381865afa158015610554573d6000803e3d6000fd5b505050506040513d601f19601f820116820180604052508101906105789190610c41565b905060007f00000000000000000000000000000000000000000000000000000000000000006001600160a01b031663957908d16040518163ffffffff1660e01b81526004016060604051808303816000875af11580156105dc573d6000803e3d6000fd5b505050506040513d601f19601f820116820180604052508101906106009190610e10565b606084015160408051630e8042bd60e21b81526001600160a01b039283166004820152835160248201526020840151604482015290830151821660648201529192507f00000000000000000000000000000000000000000000000000000000000000001690633a010af490608401600060405180830381600087803b15801561068857600080fd5b505af115801561069c573d6000803e3d6000fd5b50506040805162ffffff8089168252861660208201523393507f316c47d823baa86baaa2e951cbff286f84165aeab72718afdc0846582586b59f92500160405180910390a250505050565b60007f00000000000000000000000000000000000000000000000000000000000000006001600160a01b031663be1c766b6040518163ffffffff1660e01b8152600401602060405180830381865afa158015610747573d6000803e3d6000fd5b505050506040513d601f19601f8201168201806040525081019061076b9190610be2565b116107885760405162461bcd60e51b815260040161022990610bfb565b60007f00000000000000000000000000000000000000000000000000000000000000006001600160a01b0316632fb0b6596040518163ffffffff1660e01b8152600401602060405180830381865afa1580156107e8573d6000803e3d6000fd5b505050506040513d601f19601f8201168201806040525081019061080c9190610c41565b600154604051632385ac3b60e01b815262ffffff831660048201529192506000916001600160a01b0390911690632385ac3b90602401602060405180830381865afa15801561085f573d6000803e3d6000fd5b505050506040513d601f19601f820116820180604052508101906108839190610c66565b9050806108f85760405162461bcd60e51b815260206004820152603960248201527f4f6e6c792072656a656374656420646973747269627574696f6e732063616e2060448201527f62652072656d6f7665642066726f6d20746865207175657565000000000000006064820152608401610229565b7f00000000000000000000000000000000000000000000000000000000000000006001600160a01b031663957908d16040518163ffffffff1660e01b81526004016000604051808303816000875af1158015610958573d6000803e3d6000fd5b505050506040513d6000823e601f3d908101601f191682016040526109809190810190610d52565b5060405162ffffff8316815233907fea55ef4bfaa02ab8d3d01556637786ac0952b281afce6f71185489e2098020519060200160405180910390a25050565b6000546001600160a01b03163314610a3f5760405162461bcd60e51b815260206004820152603960248201527f4f6e6c7920746865206f776e65722063616e207365742074686520606469737460448201527f7269627574696f6e5665726966696572602061646472657373000000000000006064820152608401610229565b600180546001600160a01b0319166001600160a01b0383169081179091556040519081527f6cc0d3de1edeba7407979d71fe895d856235ad36361847ffa46fd7a3b0d123c7906020015b60405180910390a150565b6000546001600160a01b03163314610b015760405162461bcd60e51b815260206004820152602a60248201527f4f6e6c79207468652063757272656e74206f776e65722063616e207365742061604482015269103732bb9037bbb732b960b11b6064820152608401610229565b600080546001600160a01b0319166001600160a01b0383169081179091556040519081527f4ffd725fc4a22075e9ec71c59edf9c38cdeb588a91b24fc5b61388c5be41282b90602001610a89565b60005b83811015610b6a578181015183820152602001610b52565b50506000910152565b6020815260008251806020840152610b92816040850160208701610b4f565b601f01601f19169190910160400192915050565b6001600160a01b0381168114610bbb57600080fd5b50565b600060208284031215610bd057600080fd5b8135610bdb81610ba6565b9392505050565b600060208284031215610bf457600080fd5b5051919050565b60208082526026908201527f54686520646973747269627574696f6e2071756575652063616e6e6f7420626560408201526520656d70747960d01b606082015260800190565b600060208284031215610c5357600080fd5b815162ffffff81168114610bdb57600080fd5b600060208284031215610c7857600080fd5b81518015158114610bdb57600080fd5b634e487b7160e01b600052604160045260246000fd5b6040516080810167ffffffffffffffff81118282101715610cc157610cc1610c88565b60405290565b600082601f830112610cd857600080fd5b815167ffffffffffffffff811115610cf257610cf2610c88565b604051601f8201601f19908116603f0116810167ffffffffffffffff81118282101715610d2157610d21610c88565b604052818152838201602001851015610d3957600080fd5b610d4a826020830160208701610b4f565b949350505050565b600060208284031215610d6457600080fd5b815167ffffffffffffffff811115610d7b57600080fd5b820160808185031215610d8d57600080fd5b610d95610c9e565b815167ffffffffffffffff811115610dac57600080fd5b610db886828501610cc7565b825250602082015167ffffffffffffffff811115610dd557600080fd5b610de186828501610cc7565b6020830152506040828101519082015260609091015190610e0182610ba6565b60608101919091529392505050565b60006060828403128015610e2357600080fd5b506040516060810167ffffffffffffffff81118282101715610e4757610e47610c88565b60409081528351825260208085015190830152830151610e6681610ba6565b6040820152939250505056fea26469706673582212206d7e235a50f80637b5434e25e52bfd33322674df18940f1cf06a8d0b831f8e5864736f6c63430008210033",
  "linkReferences": {},
  "deployedLinkReferences": {}
}