{
  "_format": "hh-sol-artifact-1",
  "contractName": "QueueHandler",
  "sourceName": "contracts/QueueHandler.sol",
  "abi": [
    {
      "inputs": [
        {
          "internalType": "address",
          "name": "sponsorshipQueue_",
          "type": "address"
        },
        {
          "internalType": "address",
          "name": "distributionQueue_",
          "type": "address"
        },
        {
          "internalType": "address",
          "name": "distributionVerifier_",
          "type": "address"
        }
      ],
      "stateMutability": "nonpayable",
      "type": "constructor"
    },
    {
      "inputs": [
        {
          "internalType": "address",
          "name": "owner",
          "type": "address"
        }
      ],
      "name": "OwnableInvalidOwner",
      "type": "error"
    },
    {
      "inputs": [
        {
          "internalType": "address",
          "name": "account",
          "type": "address"
        }
      ],
      "name": "OwnableUnauthorizedAccount",
      "type": "error"
    },
    {
      "anonymous": false,
      "inputs": [
        {
          "indexed": false,
          "internalType": "address",
          "name": "",
          "type": "address"
        }
      ],
      "name": "DistributionVerifierUpdated",
      "type": "event"
    },
    {
      "anonymous": false,
      "inputs": [
        {
          "indexed": true,
          "internalType": "address",
          "name": "previousOwner",
          "type": "address"
        },
        {
          "indexed": true,
          "internalType": "address",
          "name": "newOwner",
          "type": "address"
        }
      ],
      "name": "OwnershipTransferred",
      "type": "event"
    },
    {
      "anonymous": false,
      "inputs": [
        {
          "indexed": false,
          "internalType": "uint24",
          "name": "distributionQueueNumber",
          "type": "uint24"
        },
        {
          "indexed": false,
          "internalType": "uint24",
          "name": "sponsorshipQueueNumber",
          "type": "uint24"
        },
        {
          "indexed": true,
          "internalType": "address",
          "name": "operator",
          "type": "address"
        }
      ],
      "name": "QueuePairProcessed",
      "type": "event"
    },
    {
      "anonymous": false,
      "inputs": [
        {
          "indexed": false,
          "internalType": "uint24",
          "name": "queueNumber",
          "type": "uint24"
        },
        {
          "indexed": true,
          "internalType": "address",
          "name": "operator",
          "type": "address"
        }
      ],
      "name": "RejectedDistributionRemoved",
      "type": "event"
    },
    {
      "anonymous": false,
      "inputs": [
        {
          "indexed": false,
          "internalType": "address",
          "name": "",
          "type": "address"
        }
      ],
      "name": "RolesUpdated",
      "type": "event"
    },
    {
      "inputs": [],
      "name": "distributionQueue",
      "outputs": [
        {
          "internalType": "contract DistributionQueue",
          "name": "",
          "type": "address"
        }
      ],
      "stateMutability": "view",
      "type": "function"
    },
    {
      "inputs": [],
      "name": "distributionVerifier",
      "outputs": [
        {
          "internalType": "contract IDistributionVerifier",
          "name": "",
          "type": "address"
        }
      ],
      "stateMutability": "view",
      "type": "function"
    },
    {
      "inputs": [],
      "name": "owner",
      "outputs": [
        {
          "internalType": "address",
          "name": "",
          "type": "address"
        }
      ],
      "stateMutability": "view",
      "type": "function"
    },
    {
      "inputs": [],
      "name": "processQueuePair",
      "outputs": [],
      "stateMutability": "nonpayable",
      "type": "function"
    },
    {
      "inputs": [],
      "name": "protocolVersion",
      "outputs": [
        {
          "internalType": "string",
          "name": "",
          "type": "string"
        }
      ],
      "stateMutability": "pure",
      "type": "function"
    },
    {
      "inputs": [],
      "name": "removeRejectedDistribution",
      "outputs": [],
      "stateMutability": "nonpayable",
      "type": "function"
    },
    {
      "inputs": [],
      "name": "renounceOwnership",
      "outputs": [],
      "stateMutability": "nonpayable",
      "type": "function"
    },
    {
      "inputs": [],
      "name": "sponsorshipQueue",
      "outputs": [
        {
          "internalType": "contract SponsorshipQueue",
          "name": "",
          "type": "address"
        }
      ],
      "stateMutability": "view",
      "type": "function"
    },
    {
      "inputs": [
        {
          "internalType": "address",
          "name": "newOwner",
          "type": "address"
        }
      ],
      "name": "transferOwnership",
      "outputs": [],
      "stateMutability": "nonpayable",
      "type": "function"
    },
    {
      "inputs": [
        {
          "internalType": "address",
          "name": "distributionVerifier_",
          "type": "address"
        }
      ],
      "name": "updateDistributionVerifier",
      "outputs": [],
      "stateMutability": "nonpayable",
      "type": "function"
    }
  ],
  "bytecode": "0x60c060405234801561001057600080fd5b5060405161100638038061100683398101604081905261002f916100f9565b338061005557604051631e4fbdf760e01b81526000600482015260240160405180910390fd5b61005e8161008d565b506001600160a01b0392831660805290821660a052600180546001600160a01b0319169190921617905561013c565b600080546001600160a01b038381166001600160a01b0319831681178455604051919092169283917f8be0079c531659141344cd1fd0a4f28419497f9722a3daafe3b4186f6b6457e09190a35050565b80516001600160a01b03811681146100f457600080fd5b919050565b60008060006060848603121561010e57600080fd5b610117846100dd565b9250610125602085016100dd565b9150610133604085016100dd565b90509250925092565b60805160a051610e606101a6600039600081816101380152818161019d015281816102470152818161049201528181610704015281816107a5015261092701526000818160a80152818161039e0152818161051101528181610597015261065d0152610e606000f3fe608060405234801561001057600080fd5b506004361061009e5760003560e01c806365772def1161006657806365772def14610133578063715018a61461015a5780638da5cb5b14610162578063a815f7a214610173578063f2fde38b1461018657600080fd5b8063177df86b146100a35780632603b407146100e75780632ae9c600146100f15780633b49a26d146101185780634de6087c14610120575b600080fd5b6100ca7f000000000000000000000000000000000000000000000000000000000000000081565b6040516001600160a01b0390911681526020015b60405180910390f35b6100ef610199565b005b6040805180820182526005815264302e392e3960d81b602082015290516100de9190610b2e565b6100ef610700565b6100ef61012e366004610b76565b6109df565b6100ca7f000000000000000000000000000000000000000000000000000000000000000081565b6100ef610a3b565b6000546001600160a01b03166100ca565b6001546100ca906001600160a01b031681565b6100ef610194366004610b76565b610a4f565b60007f00000000000000000000000000000000000000000000000000000000000000006001600160a01b031663be1c766b6040518163ffffffff1660e01b8152600401602060405180830381865afa1580156101f9573d6000803e3d6000fd5b505050506040513d601f19601f8201168201806040525081019061021d9190610b9a565b116102435760405162461bcd60e51b815260040161023a90610bb3565b60405180910390fd5b60007f00000000000000000000000000000000000000000000000000000000000000006001600160a01b0316632fb0b6596040518163ffffffff1660e01b8152600401602060405180830381865afa1580156102a3573d6000803e3d6000fd5b505050506040513d601f19601f820116820180604052508101906102c79190610bf9565b60015460405163680dd83760e11b815262ffffff831660048201529192506001600160a01b03169063d01bb06e90602401602060405180830381865afa158015610315573d6000803e3d6000fd5b505050506040513d601f19601f820116820180604052508101906103399190610c1e565b61039a5760405162461bcd60e51b815260206004820152602c60248201527f4f6e6c7920617070726f76656420646973747269627574696f6e732063616e2060448201526b1899481c1c9bd8d95cdcd95960a21b606482015260840161023a565b60007f00000000000000000000000000000000000000000000000000000000000000006001600160a01b031663be1c766b6040518163ffffffff1660e01b8152600401602060405180830381865afa1580156103fa573d6000803e3d6000fd5b505050506040513d601f19601f8201168201806040525081019061041e9190610b9a565b116104795760405162461bcd60e51b815260206004820152602560248201527f5468652073706f6e736f72736869702071756575652063616e6e6f7420626520604482015264656d70747960d81b606482015260840161023a565b60405163b17650fb60e01b8152600060048201819052907f00000000000000000000000000000000000000000000000000000000000000006001600160a01b03169063b17650fb906024016000604051808303816000875af11580156104e3573d6000803e3d6000fd5b505050506040513d6000823e601f3d908101601f1916820160405261050b9190810190610d0a565b905060007f00000000000000000000000000000000000000000000000000000000000000006001600160a01b0316632fb0b6596040518163ffffffff1660e01b8152600401602060405180830381865afa15801561056d573d6000803e3d6000fd5b505050506040513d601f19601f820116820180604052508101906105919190610bf9565b905060007f00000000000000000000000000000000000000000000000000000000000000006001600160a01b031663957908d16040518163ffffffff1660e01b81526004016060604051808303816000875af11580156105f5573d6000803e3d6000fd5b505050506040513d601f19601f820116820180604052508101906106199190610dc8565b606084015160408051630e8042bd60e21b81526001600160a01b039283166004820152835160248201526020840151604482015290830151821660648201529192507f00000000000000000000000000000000000000000000000000000000000000001690633a010af490608401600060405180830381600087803b1580156106a157600080fd5b505af11580156106b5573d6000803e3d6000fd5b50506040805162ffffff8089168252861660208201523393507f316c47d823baa86baaa2e951cbff286f84165aeab72718afdc0846582586b59f92500160405180910390a250505050565b60007f00000000000000000000000000000000000000000000000000000000000000006001600160a01b031663be1c766b6040518163ffffffff1660e01b8152600401602060405180830381865afa158015610760573d6000803e3d6000fd5b505050506040513d601f19601f820116820180604052508101906107849190610b9a565b116107a15760405162461bcd60e51b815260040161023a90610bb3565b60007f00000000000000000000000000000000000000000000000000000000000000006001600160a01b0316632fb0b6596040518163ffffffff1660e01b8152600401602060405180830381865afa158015610801573d6000803e3d6000fd5b505050506040513d601f19601f820116820180604052508101906108259190610bf9565b600154604051632385ac3b60e01b815262ffffff831660048201529192506000916001600160a01b0390911690632385ac3b90602401602060405180830381865afa158015610878573d6000803e3d6000fd5b505050506040513d601f19601f8201168201806040525081019061089c9190610c1e565b9050806109115760405162461bcd60e51b815260206004820152603960248201527f4f6e6c792072656a656374656420646973747269627574696f6e732063616e2060448201527f62652072656d6f7665642066726f6d2074686520717565756500000000000000606482015260840161023a565b60405163b17650fb60e01b8152600160048201527f00000000000000000000000000000000000000000000000000000000000000006001600160a01b03169063b17650fb906024016000604051808303816000875af1158015610978573d6000803e3d6000fd5b505050506040513d6000823e601f3d908101601f191682016040526109a09190810190610d0a565b5060405162ffffff8316815233907fea55ef4bfaa02ab8d3d01556637786ac0952b281afce6f71185489e2098020519060200160405180910390a25050565b6109e7610a8d565b600180546001600160a01b0319166001600160a01b0383169081179091556040519081527f6cc0d3de1edeba7407979d71fe895d856235ad36361847ffa46fd7a3b0d123c79060200160405180910390a150565b610a43610a8d565b610a4d6000610aba565b565b610a57610a8d565b6001600160a01b038116610a8157604051631e4fbdf760e01b81526000600482015260240161023a565b610a8a81610aba565b50565b6000546001600160a01b03163314610a4d5760405163118cdaa760e01b815233600482015260240161023a565b600080546001600160a01b038381166001600160a01b0319831681178455604051919092169283917f8be0079c531659141344cd1fd0a4f28419497f9722a3daafe3b4186f6b6457e09190a35050565b60005b83811015610b25578181015183820152602001610b0d565b50506000910152565b6020815260008251806020840152610b4d816040850160208701610b0a565b601f01601f19169190910160400192915050565b6001600160a01b0381168114610a8a57600080fd5b600060208284031215610b8857600080fd5b8135610b9381610b61565b9392505050565b600060208284031215610bac57600080fd5b5051919050565b60208082526026908201527f54686520646973747269627574696f6e2071756575652063616e6e6f7420626560408201526520656d70747960d01b606082015260800190565b600060208284031215610c0b57600080fd5b815162ffffff81168114610b9357600080fd5b600060208284031215610c3057600080fd5b81518015158114610b9357600080fd5b634e487b7160e01b600052604160045260246000fd5b6040516080810167ffffffffffffffff81118282101715610c7957610c79610c40565b60405290565b600082601f830112610c9057600080fd5b815167ffffffffffffffff811115610caa57610caa610c40565b604051601f8201601f19908116603f0116810167ffffffffffffffff81118282101715610cd957610cd9610c40565b604052818152838201602001851015610cf157600080fd5b610d02826020830160208701610b0a565b949350505050565b600060208284031215610d1c57600080fd5b815167ffffffffffffffff811115610d3357600080fd5b820160808185031215610d4557600080fd5b610d4d610c56565b815167ffffffffffffffff811115610d6457600080fd5b610d7086828501610c7f565b825250602082015167ffffffffffffffff811115610d8d57600080fd5b610d9986828501610c7f565b6020830152506040828101519082015260609091015190610db982610b61565b60608101919091529392505050565b60006060828403128015610ddb57600080fd5b506040516060810167ffffffffffffffff81118282101715610dff57610dff610c40565b60409081528351825260208085015190830152830151610e1e81610b61565b6040820152939250505056fea2646970667358221220d5611bcb02b3a62ef8cd07184556e6bb500be4ac2ddfa8c2ca0e06aae67f1c6d64736f6c63430008210033",
  "linkReferences": {},
  "deployedLinkReferences": {}
}