{
  "_format": "hh-sol-artifact-1",
  "contractName": "SponsorshipQueue",
  "sourceName": "contracts/SponsorshipQueue.sol",
  "abi": [
    {
      "inputs": [
        {
          "internalType": "uint256",
          "name": "estimatedCost_",
          "type": "uint256"
        }
      ],
      "stateMutability": "nonpayable",
      "type": "constructor"
    },
    {
      "inputs": [
        {
          "internalType": "address",
          "name": "owner",
          "type": "address"
        }
      ],
      "name": "OwnableInvalidOwner",
      "type": "error"
    },
    {
      "inputs": [
        {
          "internalType": "address",
          "name": "account",
          "type": "address"
        }
      ],
      "name": "OwnableUnauthorizedAccount",
      "type": "error"
    },
    {
      "anonymous": false,
      "inputs": [
        {
          "indexed": false,
          "internalType": "uint256",
          "name": "",
          "type": "uint256"
        }
      ],
      "name": "EstimatedCostUpdated",
      "type": "event"
    },
    {
      "anonymous": false,
      "inputs": [
        {
          "indexed": true,
          "internalType": "address",
          "name": "previousOwner",
          "type": "address"
        },
        {
          "indexed": true,
          "internalType": "address",
          "name": "newOwner",
          "type": "address"
        }
      ],
      "name": "OwnershipTransferred",
      "type": "event"
    },
    {
      "anonymous": false,
      "inputs": [
        {
          "indexed": false,
          "internalType": "address",
          "name": "",
          "type": "address"
        }
      ],
      "name": "QueueHandlerUpdated",
      "type": "event"
    },
    {
      "anonymous": false,
      "inputs": [
        {
          "indexed": false,
          "internalType": "uint24",
          "name": "queueNumber",
          "type": "uint24"
        },
        {
          "indexed": true,
          "internalType": "address",
          "name": "sponsor",
          "type": "address"
        }
      ],
      "name": "SponsorshipAdded",
      "type": "event"
    },
    {
      "inputs": [],
      "name": "addSponsorship",
      "outputs": [],
      "stateMutability": "payable",
      "type": "function"
    },
    {
      "inputs": [],
      "name": "dequeue",
      "outputs": [
        {
          "components": [
            {
              "internalType": "uint256",
              "name": "estimatedCost",
              "type": "uint256"
            },
            {
              "internalType": "uint256",
              "name": "timestamp",
              "type": "uint256"
            },
            {
              "internalType": "address",
              "name": "sponsor",
              "type": "address"
            }
          ],
          "internalType": "struct Sponsorship",
          "name": "",
          "type": "tuple"
        }
      ],
      "stateMutability": "nonpayable",
      "type": "function"
    },
    {
      "inputs": [],
      "name": "estimatedCost",
      "outputs": [
        {
          "internalType": "uint256",
          "name": "",
          "type": "uint256"
        }
      ],
      "stateMutability": "view",
      "type": "function"
    },
    {
      "inputs": [],
      "name": "getLength",
      "outputs": [
        {
          "internalType": "uint256",
          "name": "",
          "type": "uint256"
        }
      ],
      "stateMutability": "view",
      "type": "function"
    },
    {
      "inputs": [],
      "name": "owner",
      "outputs": [
        {
          "internalType": "address",
          "name": "",
          "type": "address"
        }
      ],
      "stateMutability": "view",
      "type": "function"
    },
    {
      "inputs": [
        {
          "internalType": "address",
          "name": "distributor",
          "type": "address"
        },
        {
          "components": [
            {
              "internalType": "uint256",
              "name": "estimatedCost",
              "type": "uint256"
            },
            {
              "internalType": "uint256",
              "name": "timestamp",
              "type": "uint256"
            },
            {
              "internalType": "address",
              "name": "sponsor",
              "type": "address"
            }
          ],
          "internalType": "struct Sponsorship",
          "name": "sponsorship",
          "type": "tuple"
        }
      ],
      "name": "payDistributor",
      "outputs": [],
      "stateMutability": "nonpayable",
      "type": "function"
    },
    {
      "inputs": [],
      "name": "protocolVersion",
      "outputs": [
        {
          "internalType": "string",
          "name": "",
          "type": "string"
        }
      ],
      "stateMutability": "pure",
      "type": "function"
    },
    {
      "inputs": [
        {
          "internalType": "uint24",
          "name": "",
          "type": "uint24"
        }
      ],
      "name": "queue",
      "outputs": [
        {
          "internalType": "uint256",
          "name": "estimatedCost",
          "type": "uint256"
        },
        {
          "internalType": "uint256",
          "name": "timestamp",
          "type": "uint256"
        },
        {
          "internalType": "address",
          "name": "sponsor",
          "type": "address"
        }
      ],
      "stateMutability": "view",
      "type": "function"
    },
    {
      "inputs": [],
      "name": "queueHandler",
      "outputs": [
        {
          "internalType": "address",
          "name": "",
          "type": "address"
        }
      ],
      "stateMutability": "view",
      "type": "function"
    },
    {
      "inputs": [],
      "name": "queueNumberFront",
      "outputs": [
        {
          "internalType": "uint24",
          "name": "",
          "type": "uint24"
        }
      ],
      "stateMutability": "view",
      "type": "function"
    },
    {
      "inputs": [],
      "name": "queueNumberNext",
      "outputs": [
        {
          "internalType": "uint24",
          "name": "",
          "type": "uint24"
        }
      ],
      "stateMutability": "view",
      "type": "function"
    },
    {
      "inputs": [],
      "name": "renounceOwnership",
      "outputs": [],
      "stateMutability": "nonpayable",
      "type": "function"
    },
    {
      "inputs": [
        {
          "internalType": "address",
          "name": "newOwner",
          "type": "address"
        }
      ],
      "name": "transferOwnership",
      "outputs": [],
      "stateMutability": "nonpayable",
      "type": "function"
    },
    {
      "inputs": [
        {
          "internalType": "uint256",
          "name": "estimatedCost_",
          "type": "uint256"
        }
      ],
      "name": "updateEstimatedCost",
      "outputs": [],
      "stateMutability": "nonpayable",
      "type": "function"
    },
    {
      "inputs": [
        {
          "internalType": "address",
          "name": "queueHandler_",
          "type": "address"
        }
      ],
      "name": "updateQueueHandler",
      "outputs": [],
      "stateMutability": "nonpayable",
      "type": "function"
    }
  ],
  "bytecode": "0x60806040526004805465ffffffffffff19166301000001179055348015602457600080fd5b50604051610b94380380610b9483398101604081905260419160c5565b3380606657604051631e4fbdf760e01b81526000600482015260240160405180910390fd5b606d816075565b5060015560dd565b600080546001600160a01b038381166001600160a01b0319831681178455604051919092169283917f8be0079c531659141344cd1fd0a4f28419497f9722a3daafe3b4186f6b6457e09190a35050565b60006020828403121560d657600080fd5b5051919050565b610aa8806100ec6000396000f3fe6080604052600436106100e85760003560e01c8063715018a61161008a578063be1c766b11610059578063be1c766b14610292578063c62a7317146102b5578063d6ed2f061461031e578063f2fde38b1461033457600080fd5b8063715018a6146101e75780638849a433146101fc5780638da5cb5b14610234578063957908d11461025257600080fd5b80633a010af4116100c65780633a010af41461017c578063423e36491461019c5780636e28e29c146101bf57806370b62b49146101c757600080fd5b806313ae19b3146100ed5780632ae9c6001461010f5780632fb0b6591461014c575b600080fd5b3480156100f957600080fd5b5061010d6101083660046108de565b610354565b005b34801561011b57600080fd5b506040805180820182526005815264302e392e3960d81b602082015290516101439190610900565b60405180910390f35b34801561015857600080fd5b506004546101689062ffffff1681565b60405162ffffff9091168152602001610143565b34801561018857600080fd5b5061010d61019736600461094e565b6103b1565b3480156101a857600080fd5b50600454610168906301000000900462ffffff1681565b61010d6104bb565b3480156101d357600080fd5b5061010d6101e23660046109e2565b610597565b3480156101f357600080fd5b5061010d6105d4565b34801561020857600080fd5b5060025461021c906001600160a01b031681565b6040516001600160a01b039091168152602001610143565b34801561024057600080fd5b506000546001600160a01b031661021c565b34801561025e57600080fd5b506102676105e8565b604080518251815260208084015190820152918101516001600160a01b031690820152606001610143565b34801561029e57600080fd5b506102a761074d565b604051908152602001610143565b3480156102c157600080fd5b506102fa6102d03660046109fb565b6003602052600090815260409020805460018201546002909201549091906001600160a01b031683565b6040805193845260208401929092526001600160a01b031690820152606001610143565b34801561032a57600080fd5b506102a760015481565b34801561034057600080fd5b5061010d61034f3660046108de565b610776565b61035c6107b4565b600280546001600160a01b0319166001600160a01b0383169081179091556040519081527f05ec78f77a1d48e6e47c6b09252624424c3402b3a8e99a48e59f0d710d7e7742906020015b60405180910390a150565b6002546001600160a01b031633146104235760405162461bcd60e51b815260206004820152602a60248201527f4f6e6c79207468652071756575652068616e646c65722063616e2070726f63656044820152697373207061796f75747360b01b60648201526084015b60405180910390fd5b80516040516000916001600160a01b038516918381818185875af1925050503d806000811461046e576040519150601f19603f3d011682016040523d82523d6000602084013e610473565b606091505b50509050806104b65760405162461bcd60e51b815260206004820152600f60248201526e151c985b9cd9995c8819985a5b1959608a1b604482015260640161041a565b505050565b60015434146105185760405162461bcd60e51b8152602060048201526024808201527f4d7573742073656e642065786163746c792074686520657374696d617465642060448201526318dbdcdd60e21b606482015260840161041a565b604080516060810182526001548152426020820152339181019190915261053e816107e1565b60045433907fbb91fb9bfe51471bb42d76b85b3ed9941cb55f223dbaee1057bcc238411eb3099061057d906001906301000000900462ffffff16610a36565b60405162ffffff909116815260200160405180910390a250565b61059f6107b4565b60018190556040518181527f33c78a8bf87e9543dd141ff0b40c84fcd144e6d54cadbce6b444da8581108870906020016103a6565b6105dc6107b4565b6105e66000610872565b565b6106156040518060600160405280600081526020016000815260200160006001600160a01b031681525090565b6002546001600160a01b031633146106885760405162461bcd60e51b815260206004820152603060248201527f4f6e6c79207468652071756575652068616e646c65722063616e2072656d6f7660448201526f652066726f6d2074686520717565756560801b606482015260840161041a565b600061069261074d565b116106d05760405162461bcd60e51b815260206004820152600e60248201526d517565756520697320656d70747960901b604482015260640161041a565b6004805462ffffff166000818152600360209081526040808320815160608101835281548152600182810154948201949094526002909101546001600160a01b03169181019190915293909290919061072a908490610a57565b92506101000a81548162ffffff021916908362ffffff1602179055508091505090565b60045460009061076c9062ffffff808216916301000000900416610a36565b62ffffff16905090565b61077e6107b4565b6001600160a01b0381166107a857604051631e4fbdf760e01b81526000600482015260240161041a565b6107b181610872565b50565b6000546001600160a01b031633146105e65760405163118cdaa760e01b815233600482015260240161041a565b6004805463010000009081900462ffffff908116600090815260036020818152604092839020875181559087015160018083019190915592870151600290910180546001600160a01b0319166001600160a01b0390921691909117905584549194939092610853928692900416610a57565b92506101000a81548162ffffff021916908362ffffff16021790555050565b600080546001600160a01b038381166001600160a01b0319831681178455604051919092169283917f8be0079c531659141344cd1fd0a4f28419497f9722a3daafe3b4186f6b6457e09190a35050565b80356001600160a01b03811681146108d957600080fd5b919050565b6000602082840312156108f057600080fd5b6108f9826108c2565b9392505050565b602081526000825180602084015260005b8181101561092e5760208186018101516040868401015201610911565b506000604082850101526040601f19601f83011684010191505092915050565b600080828403608081121561096257600080fd5b61096b846108c2565b92506060601f198201121561097f57600080fd5b506040516060810181811067ffffffffffffffff821117156109b157634e487b7160e01b600052604160045260246000fd5b6040908152602085810135835290850135908201526109d2606085016108c2565b6040820152809150509250929050565b6000602082840312156109f457600080fd5b5035919050565b600060208284031215610a0d57600080fd5b813562ffffff811681146108f957600080fd5b634e487b7160e01b600052601160045260246000fd5b62ffffff8281168282160390811115610a5157610a51610a20565b92915050565b62ffffff8181168382160190811115610a5157610a51610a2056fea26469706673582212204a315bcd7b370aa7a7fdc3d999d9d1422da5e981eccbaec149d8a55ed9558bfc64736f6c63430008210033",
  "linkReferences": {},
  "deployedLinkReferences": {}
}