{
  "_format": "hh-sol-artifact-1",
  "contractName": "DistributionQueue",
  "sourceName": "contracts/DistributionQueue.sol",
  "abi": [
    {
      "inputs": [
        {
          "internalType": "address",
          "name": "languages_",
          "type": "address"
        }
      ],
      "stateMutability": "nonpayable",
      "type": "constructor"
    },
    {
      "inputs": [],
      "name": "DuplicateAndroidId",
      "type": "error"
    },
    {
      "inputs": [],
      "name": "InvalidLanguageCode",
      "type": "error"
    },
    {
      "inputs": [
        {
          "internalType": "address",
          "name": "owner",
          "type": "address"
        }
      ],
      "name": "OwnableInvalidOwner",
      "type": "error"
    },
    {
      "inputs": [
        {
          "internalType": "address",
          "name": "account",
          "type": "address"
        }
      ],
      "name": "OwnableUnauthorizedAccount",
      "type": "error"
    },
    {
      "anonymous": false,
      "inputs": [
        {
          "indexed": false,
          "internalType": "uint24",
          "name": "queueNumber",
          "type": "uint24"
        },
        {
          "indexed": true,
          "internalType": "address",
          "name": "distributor",
          "type": "address"
        }
      ],
      "name": "DistributionAdded",
      "type": "event"
    },
    {
      "anonymous": false,
      "inputs": [
        {
          "indexed": false,
          "internalType": "address",
          "name": "",
          "type": "address"
        }
      ],
      "name": "LanguagesUpdated",
      "type": "event"
    },
    {
      "anonymous": false,
      "inputs": [
        {
          "indexed": true,
          "internalType": "address",
          "name": "previousOwner",
          "type": "address"
        },
        {
          "indexed": true,
          "internalType": "address",
          "name": "newOwner",
          "type": "address"
        }
      ],
      "name": "OwnershipTransferred",
      "type": "event"
    },
    {
      "anonymous": false,
      "inputs": [
        {
          "indexed": false,
          "internalType": "address",
          "name": "",
          "type": "address"
        }
      ],
      "name": "QueueHandlerUpdated",
      "type": "event"
    },
    {
      "inputs": [
        {
          "internalType": "string",
          "name": "languageCode",
          "type": "string"
        },
        {
          "internalType": "string",
          "name": "androidId",
          "type": "string"
        }
      ],
      "name": "addDistribution",
      "outputs": [],
      "stateMutability": "nonpayable",
      "type": "function"
    },
    {
      "inputs": [
        {
          "internalType": "bool",
          "name": "rejected",
          "type": "bool"
        }
      ],
      "name": "dequeue",
      "outputs": [
        {
          "components": [
            {
              "internalType": "string",
              "name": "languageCode",
              "type": "string"
            },
            {
              "internalType": "string",
              "name": "androidId",
              "type": "string"
            },
            {
              "internalType": "uint256",
              "name": "timestamp",
              "type": "uint256"
            },
            {
              "internalType": "address",
              "name": "distributor",
              "type": "address"
            }
          ],
          "internalType": "struct Distribution",
          "name": "",
          "type": "tuple"
        }
      ],
      "stateMutability": "nonpayable",
      "type": "function"
    },
    {
      "inputs": [],
      "name": "getLength",
      "outputs": [
        {
          "internalType": "uint256",
          "name": "",
          "type": "uint256"
        }
      ],
      "stateMutability": "view",
      "type": "function"
    },
    {
      "inputs": [],
      "name": "languages",
      "outputs": [
        {
          "internalType": "contract ILanguages",
          "name": "",
          "type": "address"
        }
      ],
      "stateMutability": "view",
      "type": "function"
    },
    {
      "inputs": [],
      "name": "owner",
      "outputs": [
        {
          "internalType": "address",
          "name": "",
          "type": "address"
        }
      ],
      "stateMutability": "view",
      "type": "function"
    },
    {
      "inputs": [],
      "name": "protocolVersion",
      "outputs": [
        {
          "internalType": "string",
          "name": "",
          "type": "string"
        }
      ],
      "stateMutability": "pure",
      "type": "function"
    },
    {
      "inputs": [
        {
          "internalType": "uint24",
          "name": "",
          "type": "uint24"
        }
      ],
      "name": "queue",
      "outputs": [
        {
          "internalType": "string",
          "name": "languageCode",
          "type": "string"
        },
        {
          "internalType": "string",
          "name": "androidId",
          "type": "string"
        },
        {
          "internalType": "uint256",
          "name": "timestamp",
          "type": "uint256"
        },
        {
          "internalType": "address",
          "name": "distributor",
          "type": "address"
        }
      ],
      "stateMutability": "view",
      "type": "function"
    },
    {
      "inputs": [],
      "name": "queueHandler",
      "outputs": [
        {
          "internalType": "address",
          "name": "",
          "type": "address"
        }
      ],
      "stateMutability": "view",
      "type": "function"
    },
    {
      "inputs": [],
      "name": "queueNumberFront",
      "outputs": [
        {
          "internalType": "uint24",
          "name": "",
          "type": "uint24"
        }
      ],
      "stateMutability": "view",
      "type": "function"
    },
    {
      "inputs": [],
      "name": "queueNumberNext",
      "outputs": [
        {
          "internalType": "uint24",
          "name": "",
          "type": "uint24"
        }
      ],
      "stateMutability": "view",
      "type": "function"
    },
    {
      "inputs": [],
      "name": "renounceOwnership",
      "outputs": [],
      "stateMutability": "nonpayable",
      "type": "function"
    },
    {
      "inputs": [
        {
          "internalType": "address",
          "name": "newOwner",
          "type": "address"
        }
      ],
      "name": "transferOwnership",
      "outputs": [],
      "stateMutability": "nonpayable",
      "type": "function"
    },
    {
      "inputs": [
        {
          "internalType": "address",
          "name": "languages_",
          "type": "address"
        }
      ],
      "name": "updateLanguages",
      "outputs": [],
      "stateMutability": "nonpayable",
      "type": "function"
    },
    {
      "inputs": [
        {
          "internalType": "address",
          "name": "queueHandler_",
          "type": "address"
        }
      ],
      "name": "updateQueueHandler",
      "outputs": [],
      "stateMutability": "nonpayable",
      "type": "function"
    }
  ],
  "bytecode": "0x60806040526005805465ffffffffffff1916630100000117905534801561002557600080fd5b506040516110a73803806110a7833981016040819052610044916100e9565b338061006a57604051631e4fbdf760e01b81526000600482015260240160405180910390fd5b61007381610099565b50600180546001600160a01b0319166001600160a01b0392909216919091179055610119565b600080546001600160a01b038381166001600160a01b0319831681178455604051919092169283917f8be0079c531659141344cd1fd0a4f28419497f9722a3daafe3b4186f6b6457e09190a35050565b6000602082840312156100fb57600080fd5b81516001600160a01b038116811461011257600080fd5b9392505050565b610f7f806101286000396000f3fe608060405234801561001057600080fd5b50600436106100ea5760003560e01c80638849a4331161008c578063be1c766b11610066578063be1c766b146101f3578063bea6a84914610209578063c62a73171461021c578063f2fde38b1461023f57600080fd5b80638849a433146101af5780638da5cb5b146101c2578063b17650fb146101d357600080fd5b80632ae9c600116100c85780632ae9c600146101475780632fb0b6591461016e578063423e364914610191578063715018a6146101a757600080fd5b806313ae19b3146100ef5780631a7d661f146101045780632972a64c14610117575b600080fd5b6101026100fd366004610ac7565b610252565b005b610102610112366004610b40565b6102af565b60015461012a906001600160a01b031681565b6040516001600160a01b0390911681526020015b60405180910390f35b6040805180820182526005815264302e392e3960d81b6020820152905161013e9190610c01565b60055461017d9062ffffff1681565b60405162ffffff909116815260200161013e565b60055461017d906301000000900462ffffff1681565b610102610473565b60025461012a906001600160a01b031681565b6000546001600160a01b031661012a565b6101e66101e1366004610c22565b610487565b60405161013e9190610c3f565b6101fb61075b565b60405190815260200161013e565b610102610217366004610ac7565b610784565b61022f61022a366004610ca4565b6107da565b60405161013e9493929190610cc9565b61010261024d366004610ac7565b61091c565b61025a61095a565b600280546001600160a01b0319166001600160a01b0383169081179091556040519081527f05ec78f77a1d48e6e47c6b09252624424c3402b3a8e99a48e59f0d710d7e7742906020015b60405180910390a150565b60015460405163032ae28760e51b81526001600160a01b039091169063655c50e0906102e19087908790600401610d10565b602060405180830381865afa1580156102fe573d6000803e3d6000fd5b505050506040513d601f19601f820116820180604052508101906103229190610d3f565b61033f576040516342330a5960e11b815260040160405180910390fd5b60048282604051610351929190610d5c565b9081526040519081900360200190205460ff1615610382576040516322b0825160e01b815260040160405180910390fd5b6040805160a06020601f87018190040282018101909252608081018581526000928291908890889081908501838280828437600092019190915250505090825250604080516020601f87018190048102820181019092528581529181019190869086908190840183828082843760009201919091525050509082525042602082015233604090910152905061041681610987565b60055433907f1aec479b94f92c06208f368f87b1aceff711948fa282f8b23519e0fa4177681790610455906001906301000000900462ffffff16610d82565b60405162ffffff909116815260200160405180910390a25050505050565b61047b61095a565b6104856000610a77565b565b6104bb604051806080016040528060608152602001606081526020016000815260200160006001600160a01b031681525090565b6002546001600160a01b031633146105335760405162461bcd60e51b815260206004820152603060248201527f4f6e6c79207468652071756575652068616e646c65722063616e2072656d6f7660448201526f652066726f6d2074686520717565756560801b60648201526084015b60405180910390fd5b600061053d61075b565b1161057b5760405162461bcd60e51b815260206004820152600e60248201526d517565756520697320656d70747960901b604482015260640161052a565b60055462ffffff166000908152600360205260408082208151608081019092528054829082906105aa90610da3565b80601f01602080910402602001604051908101604052809291908181526020018280546105d690610da3565b80156106235780601f106105f857610100808354040283529160200191610623565b820191906000526020600020905b81548152906001019060200180831161060657829003601f168201915b5050505050815260200160018201805461063c90610da3565b80601f016020809104026020016040519081016040528092919081815260200182805461066890610da3565b80156106b55780601f1061068a576101008083540402835291602001916106b5565b820191906000526020600020905b81548152906001019060200180831161069857829003601f168201915b5050509183525050600282015460208201526003909101546001600160a01b03166040909101529050821561071b576000600482602001516040516106fa9190610ddd565b908152604051908190036020019020805491151560ff199092169190911790555b600580546001919060009061073690849062ffffff16610df9565b92506101000a81548162ffffff021916908362ffffff16021790555080915050919050565b60055460009061077a9062ffffff808216916301000000900416610d82565b62ffffff16905090565b61078c61095a565b600180546001600160a01b0319166001600160a01b0383169081179091556040519081527fa27bcd9ea6a1be02da6027dac62bc65e5a0f8e180f47bc6e3bfbee065b69b4f7906020016102a4565b6003602052600090815260409020805481906107f590610da3565b80601f016020809104026020016040519081016040528092919081815260200182805461082190610da3565b801561086e5780601f106108435761010080835404028352916020019161086e565b820191906000526020600020905b81548152906001019060200180831161085157829003601f168201915b50505050509080600101805461088390610da3565b80601f01602080910402602001604051908101604052809291908181526020018280546108af90610da3565b80156108fc5780601f106108d1576101008083540402835291602001916108fc565b820191906000526020600020905b8154815290600101906020018083116108df57829003601f168201915b5050505060028301546003909301549192916001600160a01b0316905084565b61092461095a565b6001600160a01b03811661094e57604051631e4fbdf760e01b81526000600482015260240161052a565b61095781610a77565b50565b6000546001600160a01b031633146104855760405163118cdaa760e01b815233600482015260240161052a565b6005546301000000900462ffffff166000908152600360205260409020815182919081906109b59082610e86565b50602082015160018201906109ca9082610e86565b506040828101516002830155606090920151600390910180546001600160a01b0319166001600160a01b0390921691909117905560208201519051600191600491610a159190610ddd565b908152604051908190036020019020805491151560ff199092169190911790556005805460019190600390610a5890849062ffffff630100000090910416610df9565b92506101000a81548162ffffff021916908362ffffff16021790555050565b600080546001600160a01b038381166001600160a01b0319831681178455604051919092169283917f8be0079c531659141344cd1fd0a4f28419497f9722a3daafe3b4186f6b6457e09190a35050565b600060208284031215610ad957600080fd5b81356001600160a01b0381168114610af057600080fd5b9392505050565b60008083601f840112610b0957600080fd5b50813567ffffffffffffffff811115610b2157600080fd5b602083019150836020828501011115610b3957600080fd5b9250929050565b60008060008060408587031215610b5657600080fd5b843567ffffffffffffffff811115610b6d57600080fd5b610b7987828801610af7565b909550935050602085013567ffffffffffffffff811115610b9957600080fd5b610ba587828801610af7565b95989497509550505050565b60005b83811015610bcc578181015183820152602001610bb4565b50506000910152565b60008151808452610bed816020860160208601610bb1565b601f01601f19169290920160200192915050565b602081526000610af06020830184610bd5565b801515811461095757600080fd5b600060208284031215610c3457600080fd5b8135610af081610c14565b602081526000825160806020840152610c5b60a0840182610bd5565b90506020840151601f19848303016040850152610c788282610bd5565b6040860151606086810191909152909501516001600160a01b0316608090940193909352509192915050565b600060208284031215610cb657600080fd5b813562ffffff81168114610af057600080fd5b608081526000610cdc6080830187610bd5565b8281036020840152610cee8187610bd5565b604084019590955250506001600160a01b039190911660609091015292915050565b60208152816020820152818360408301376000818301604090810191909152601f909201601f19160101919050565b600060208284031215610d5157600080fd5b8151610af081610c14565b8183823760009101908152919050565b634e487b7160e01b600052601160045260246000fd5b62ffffff8281168282160390811115610d9d57610d9d610d6c565b92915050565b600181811c90821680610db757607f821691505b602082108103610dd757634e487b7160e01b600052602260045260246000fd5b50919050565b60008251610def818460208701610bb1565b9190910192915050565b62ffffff8181168382160190811115610d9d57610d9d610d6c565b634e487b7160e01b600052604160045260246000fd5b601f821115610e815782821115610e8157806000526020600020601f840160051c6020851015610e58575060005b90810190601f840160051c0360005b81811015610e7d57600083820155600101610e67565b5050505b505050565b815167ffffffffffffffff811115610ea057610ea0610e14565b610eb481610eae8454610da3565b84610e2a565b6020601f821160018114610ee85760008315610ed05750848201515b600019600385901b1c1916600184901b178455610f42565b600084815260208120601f198516915b82811015610f185787850151825560209485019460019092019101610ef8565b5084821015610f365786840151600019600387901b60f8161c191681555b505060018360011b0184555b505050505056fea2646970667358221220eeeeaee7b8cf9188081debcd8d81d7bf9ee5ff2e36b57bd74334c8e2b44cbd0464736f6c63430008210033",
  "linkReferences": {},
  "deployedLinkReferences": {}
}