{
  "_format": "hh-sol-artifact-1",
  "contractName": "DistributionVerifier",
  "sourceName": "contracts/DistributionVerifier.sol",
  "abi": [
    {
      "inputs": [
        {
          "internalType": "address",
          "name": "roles_",
          "type": "address"
        }
      ],
      "stateMutability": "nonpayable",
      "type": "constructor"
    },
    {
      "inputs": [
        {
          "internalType": "address",
          "name": "owner",
          "type": "address"
        }
      ],
      "name": "OwnableInvalidOwner",
      "type": "error"
    },
    {
      "inputs": [
        {
          "internalType": "address",
          "name": "account",
          "type": "address"
        }
      ],
      "name": "OwnableUnauthorizedAccount",
      "type": "error"
    },
    {
      "anonymous": false,
      "inputs": [
        {
          "indexed": false,
          "internalType": "uint24",
          "name": "queueNumber",
          "type": "uint24"
        },
        {
          "indexed": true,
          "internalType": "address",
          "name": "operator",
          "type": "address"
        }
      ],
      "name": "DistributionApproved",
      "type": "event"
    },
    {
      "anonymous": false,
      "inputs": [
        {
          "indexed": false,
          "internalType": "uint24",
          "name": "queueNumber",
          "type": "uint24"
        },
        {
          "indexed": true,
          "internalType": "address",
          "name": "operator",
          "type": "address"
        }
      ],
      "name": "DistributionRejected",
      "type": "event"
    },
    {
      "anonymous": false,
      "inputs": [
        {
          "indexed": true,
          "internalType": "address",
          "name": "previousOwner",
          "type": "address"
        },
        {
          "indexed": true,
          "internalType": "address",
          "name": "newOwner",
          "type": "address"
        }
      ],
      "name": "OwnershipTransferred",
      "type": "event"
    },
    {
      "anonymous": false,
      "inputs": [
        {
          "indexed": false,
          "internalType": "address",
          "name": "roles",
          "type": "address"
        }
      ],
      "name": "RolesUpdated",
      "type": "event"
    },
    {
      "inputs": [
        {
          "internalType": "uint24",
          "name": "",
          "type": "uint24"
        }
      ],
      "name": "approvalCount",
      "outputs": [
        {
          "internalType": "uint8",
          "name": "",
          "type": "uint8"
        }
      ],
      "stateMutability": "view",
      "type": "function"
    },
    {
      "inputs": [
        {
          "internalType": "uint24",
          "name": "queueNumber",
          "type": "uint24"
        }
      ],
      "name": "isDistributionApproved",
      "outputs": [
        {
          "internalType": "bool",
          "name": "",
          "type": "bool"
        }
      ],
      "stateMutability": "view",
      "type": "function"
    },
    {
      "inputs": [
        {
          "internalType": "uint24",
          "name": "queueNumber",
          "type": "uint24"
        }
      ],
      "name": "isDistributionRejected",
      "outputs": [
        {
          "internalType": "bool",
          "name": "",
          "type": "bool"
        }
      ],
      "stateMutability": "view",
      "type": "function"
    },
    {
      "inputs": [],
      "name": "owner",
      "outputs": [
        {
          "internalType": "address",
          "name": "",
          "type": "address"
        }
      ],
      "stateMutability": "view",
      "type": "function"
    },
    {
      "inputs": [],
      "name": "protocolVersion",
      "outputs": [
        {
          "internalType": "string",
          "name": "",
          "type": "string"
        }
      ],
      "stateMutability": "pure",
      "type": "function"
    },
    {
      "inputs": [
        {
          "internalType": "uint24",
          "name": "",
          "type": "uint24"
        }
      ],
      "name": "rejectionCount",
      "outputs": [
        {
          "internalType": "uint8",
          "name": "",
          "type": "uint8"
        }
      ],
      "stateMutability": "view",
      "type": "function"
    },
    {
      "inputs": [],
      "name": "renounceOwnership",
      "outputs": [],
      "stateMutability": "nonpayable",
      "type": "function"
    },
    {
      "inputs": [],
      "name": "roles",
      "outputs": [
        {
          "internalType": "contract IRoles",
          "name": "",
          "type": "address"
        }
      ],
      "stateMutability": "view",
      "type": "function"
    },
    {
      "inputs": [
        {
          "internalType": "address",
          "name": "newOwner",
          "type": "address"
        }
      ],
      "name": "transferOwnership",
      "outputs": [],
      "stateMutability": "nonpayable",
      "type": "function"
    },
    {
      "inputs": [
        {
          "internalType": "address",
          "name": "roles_",
          "type": "address"
        }
      ],
      "name": "updateRoles",
      "outputs": [],
      "stateMutability": "nonpayable",
      "type": "function"
    },
    {
      "inputs": [
        {
          "internalType": "uint24",
          "name": "queueNumber",
          "type": "uint24"
        },
        {
          "internalType": "bool",
          "name": "approved",
          "type": "bool"
        }
      ],
      "name": "verifyDistribution",
      "outputs": [],
      "stateMutability": "nonpayable",
      "type": "function"
    }
  ],
  "bytecode": "0x608060405234801561001057600080fd5b5060405161089838038061089883398101604081905261002f916100d4565b338061005557604051631e4fbdf760e01b81526000600482015260240160405180910390fd5b61005e81610084565b50600180546001600160a01b0319166001600160a01b0392909216919091179055610104565b600080546001600160a01b038381166001600160a01b0319831681178455604051919092169283917f8be0079c531659141344cd1fd0a4f28419497f9722a3daafe3b4186f6b6457e09190a35050565b6000602082840312156100e657600080fd5b81516001600160a01b03811681146100fd57600080fd5b9392505050565b610785806101136000396000f3fe608060405234801561001057600080fd5b50600436106100a95760003560e01c80638da5cb5b116100715780638da5cb5b1461016b5780639781e3b51461017c5780639f3c6819146101b1578063cf714d3b146101d4578063d01bb06e146101e7578063f2fde38b1461022057600080fd5b80632385ac3b146100ae5780632ae9c600146100fc578063392f5f64146101235780633a80760a1461014e578063715018a614610163575b600080fd5b6100e76100bc366004610627565b62ffffff1660009081526002602090815260408083205460039092529091205460ff91821691161190565b60405190151581526020015b60405180910390f35b6040805180820182526005815264302e392e3960d81b602082015290516100f39190610649565b600154610136906001600160a01b031681565b6040516001600160a01b0390911681526020016100f3565b61016161015c366004610697565b610233565b005b61016161028f565b6000546001600160a01b0316610136565b61019f61018a366004610627565b60026020526000908152604090205460ff1681565b60405160ff90911681526020016100f3565b61019f6101bf366004610627565b60036020526000908152604090205460ff1681565b6101616101e23660046106ce565b6102a3565b6100e76101f5366004610627565b62ffffff1660009081526003602090815260408083205460029092529091205460ff91821691161190565b61016161022e366004610697565b610554565b61023b610592565b600180546001600160a01b0319166001600160a01b0383169081179091556040519081527f0fb53df5eaab7f6dbb10bfa2951418c0e50c8f11ea7298e2a159c0022b8480059060200160405180910390a150565b610297610592565b6102a160006105bf565b565b600154604051633e800ddf60e11b81523360048201526001600160a01b0390911690637d001bbe90602401602060405180830381865afa1580156102eb573d6000803e3d6000fd5b505050506040513d601f19601f8201168201806040525081019061030f9190610705565b61037c5760405162461bcd60e51b815260206004820152603360248201527f4f6e6c792044414f206f70657261746f72732063616e20617070726f76652f72604482015272656a65637420646973747269627574696f6e7360681b60648201526084015b60405180910390fd5b62ffffff8216600090815260046020908152604080832033845290915290205460ff16156104065760405162461bcd60e51b815260206004820152603160248201527f566572696669636174696f6e20616c72656164792065786973747320666f72206044820152703a3434b9902220a79037b832b930ba37b960791b6064820152608401610373565b80156104b45762ffffff8216600090815260026020526040812080546001929061043490849060ff16610722565b825460ff9182166101009390930a92830291909202199091161790555062ffffff821660008181526004602090815260408083203380855290835292819020805460ff191660011790555192835290917f6d16b07b3bd2b3b396d53ae8a6a61b0aa8110181007d5928f49fd30963f912ed91015b60405180910390a25050565b62ffffff821660009081526003602052604081208054600192906104dc90849060ff16610722565b825460ff9182166101009390930a92830291909202199091161790555062ffffff821660008181526004602090815260408083203380855290835292819020805460ff191660011790555192835290917fb8de99488aba4b1b8c55d235a0627d4a50ecbf34e7bf81a7c03fa28ba983cf2c91016104a8565b61055c610592565b6001600160a01b03811661058657604051631e4fbdf760e01b815260006004820152602401610373565b61058f816105bf565b50565b6000546001600160a01b031633146102a15760405163118cdaa760e01b8152336004820152602401610373565b600080546001600160a01b038381166001600160a01b0319831681178455604051919092169283917f8be0079c531659141344cd1fd0a4f28419497f9722a3daafe3b4186f6b6457e09190a35050565b803562ffffff8116811461062257600080fd5b919050565b60006020828403121561063957600080fd5b6106428261060f565b9392505050565b602081526000825180602084015260005b81811015610677576020818601810151604086840101520161065a565b506000604082850101526040601f19601f83011684010191505092915050565b6000602082840312156106a957600080fd5b81356001600160a01b038116811461064257600080fd5b801515811461058f57600080fd5b600080604083850312156106e157600080fd5b6106ea8361060f565b915060208301356106fa816106c0565b809150509250929050565b60006020828403121561071757600080fd5b8151610642816106c0565b60ff818116838216019081111561074957634e487b7160e01b600052601160045260246000fd5b9291505056fea264697066735822122062b53c334178d27d38b000abfb2b164bfce9bce18df3a6307580a3d60f6c6ded64736f6c63430008210033",
  "linkReferences": {},
  "deployedLinkReferences": {}
}