{
  "_format": "hh-sol-artifact-1",
  "contractName": "DistributionImporter",
  "sourceName": "contracts/sample/DistributionImporter.sol",
  "abi": [
    {
      "inputs": [
        {
          "internalType": "address",
          "name": "distributionQueue_",
          "type": "address"
        }
      ],
      "stateMutability": "nonpayable",
      "type": "constructor"
    },
    {
      "inputs": [
        {
          "internalType": "address",
          "name": "owner",
          "type": "address"
        }
      ],
      "name": "OwnableInvalidOwner",
      "type": "error"
    },
    {
      "inputs": [
        {
          "internalType": "address",
          "name": "account",
          "type": "address"
        }
      ],
      "name": "OwnableUnauthorizedAccount",
      "type": "error"
    },
    {
      "anonymous": false,
      "inputs": [
        {
          "indexed": true,
          "internalType": "address",
          "name": "importer",
          "type": "address"
        },
        {
          "indexed": false,
          "internalType": "string",
          "name": "languageCode",
          "type": "string"
        },
        {
          "indexed": false,
          "internalType": "string",
          "name": "androidId",
          "type": "string"
        }
      ],
      "name": "DistributionImported",
      "type": "event"
    },
    {
      "anonymous": false,
      "inputs": [
        {
          "indexed": true,
          "internalType": "address",
          "name": "processor",
          "type": "address"
        },
        {
          "indexed": false,
          "internalType": "uint256",
          "name": "count",
          "type": "uint256"
        }
      ],
      "name": "DistributionsProcessed",
      "type": "event"
    },
    {
      "anonymous": false,
      "inputs": [
        {
          "indexed": true,
          "internalType": "address",
          "name": "previousOwner",
          "type": "address"
        },
        {
          "indexed": true,
          "internalType": "address",
          "name": "newOwner",
          "type": "address"
        }
      ],
      "name": "OwnershipTransferred",
      "type": "event"
    },
    {
      "inputs": [
        {
          "internalType": "uint256",
          "name": "",
          "type": "uint256"
        }
      ],
      "name": "androidIds",
      "outputs": [
        {
          "internalType": "string",
          "name": "",
          "type": "string"
        }
      ],
      "stateMutability": "view",
      "type": "function"
    },
    {
      "inputs": [],
      "name": "distributionQueue",
      "outputs": [
        {
          "internalType": "contract IDistributionQueue",
          "name": "",
          "type": "address"
        }
      ],
      "stateMutability": "view",
      "type": "function"
    },
    {
      "inputs": [
        {
          "internalType": "string",
          "name": "languageCode",
          "type": "string"
        },
        {
          "internalType": "string",
          "name": "androidId",
          "type": "string"
        }
      ],
      "name": "importDistribution",
      "outputs": [],
      "stateMutability": "nonpayable",
      "type": "function"
    },
    {
      "inputs": [
        {
          "internalType": "uint256",
          "name": "",
          "type": "uint256"
        }
      ],
      "name": "languageCodes",
      "outputs": [
        {
          "internalType": "string",
          "name": "",
          "type": "string"
        }
      ],
      "stateMutability": "view",
      "type": "function"
    },
    {
      "inputs": [],
      "name": "owner",
      "outputs": [
        {
          "internalType": "address",
          "name": "",
          "type": "address"
        }
      ],
      "stateMutability": "view",
      "type": "function"
    },
    {
      "inputs": [],
      "name": "processDistributions",
      "outputs": [],
      "stateMutability": "nonpayable",
      "type": "function"
    },
    {
      "inputs": [],
      "name": "renounceOwnership",
      "outputs": [],
      "stateMutability": "nonpayable",
      "type": "function"
    },
    {
      "inputs": [
        {
          "internalType": "address",
          "name": "newOwner",
          "type": "address"
        }
      ],
      "name": "transferOwnership",
      "outputs": [],
      "stateMutability": "nonpayable",
      "type": "function"
    }
  ],
  "bytecode": "0x60a060405234801561001057600080fd5b50604051610acd380380610acd83398101604081905261002f916100c0565b338061005557604051631e4fbdf760e01b81526000600482015260240160405180910390fd5b61005e81610070565b506001600160a01b03166080526100f0565b600080546001600160a01b038381166001600160a01b0319831681178455604051919092169283917f8be0079c531659141344cd1fd0a4f28419497f9722a3daafe3b4186f6b6457e09190a35050565b6000602082840312156100d257600080fd5b81516001600160a01b03811681146100e957600080fd5b9392505050565b6080516109bc610111600039600081816092015261017a01526109bc6000f3fe608060405234801561001057600080fd5b50600436106100885760003560e01c8063b42fc3021161005b578063b42fc302146100f4578063c224e06014610114578063f2fde38b14610127578063fe1da4491461013a57600080fd5b806365772def1461008d578063715018a6146100d15780638da5cb5b146100db578063b1575b2e146100ec575b600080fd5b6100b47f000000000000000000000000000000000000000000000000000000000000000081565b6040516001600160a01b0390911681526020015b60405180910390f35b6100d961014d565b005b6000546001600160a01b03166100b4565b6100d9610161565b61010761010236600461055e565b610294565b6040516100c89190610577565b6100d961012236600461060e565b610340565b6100d961013536600461067f565b610408565b61010761014836600461055e565b61044b565b61015561045b565b61015f6000610488565b565b60005b6001805461017291906106c5565b8111610243577f00000000000000000000000000000000000000000000000000000000000000006001600160a01b0316631a7d661f600183815481106101ba576101ba6106de565b90600052602060002001600284815481106101d7576101d76106de565b906000526020600020016040518363ffffffff1660e01b81526004016101fe9291906107b1565b600060405180830381600087803b15801561021857600080fd5b505af115801561022c573d6000803e3d6000fd5b50505050808061023b906107df565b915050610164565b5060015460405190815233907f99c0456ae48c50fee724b8f5ba40df63fa738b80533d3c858480083cce263d3c9060200160405180910390a2610288600160006104d8565b61015f600260006104d8565b600281815481106102a457600080fd5b9060005260206000200160009150905080546102bf906106f4565b80601f01602080910402602001604051908101604052809291908181526020018280546102eb906106f4565b80156103385780601f1061030d57610100808354040283529160200191610338565b820191906000526020600020905b81548152906001019060200180831161031b57829003601f168201915b505050505081565b6001805480820182556000919091527fb10e2d527612073b26eecdfd717e6a320cf44b4afac2b0732d9fcbe2b7fa0cf60161037c84868361086a565b50600280546001810182556000919091527f405787fa12a823e0f2b7631cc41b3ba8828b3321ca811111fa75cd3aa3bb5ace016103ba82848361086a565b50336001600160a01b03167f7e991bfff5f2dab540dcad191be75ef7fd98703cb87c098518d4f565781a3f0d858585856040516103fa9493929190610954565b60405180910390a250505050565b61041061045b565b6001600160a01b03811661043f57604051631e4fbdf760e01b8152600060048201526024015b60405180910390fd5b61044881610488565b50565b600181815481106102a457600080fd5b6000546001600160a01b0316331461015f5760405163118cdaa760e01b8152336004820152602401610436565b600080546001600160a01b038381166001600160a01b0319831681178455604051919092169283917f8be0079c531659141344cd1fd0a4f28419497f9722a3daafe3b4186f6b6457e09190a35050565b5080546000825590600052602060002090610448919060005b8082111561050e576105068184016000610513565b6001016104f1565b505090565b50805461051f906106f4565b6000825580601f1061052f575050565b601f016020900490600052602060002090610448919060005b8082111561050e57600081840155600101610548565b60006020828403121561057057600080fd5b5035919050565b602081526000825180602084015260005b818110156105a55760208186018101516040868401015201610588565b506000604082850101526040601f19601f83011684010191505092915050565b60008083601f8401126105d757600080fd5b50813567ffffffffffffffff8111156105ef57600080fd5b60208301915083602082850101111561060757600080fd5b9250929050565b6000806000806040858703121561062457600080fd5b843567ffffffffffffffff81111561063b57600080fd5b610647878288016105c5565b909550935050602085013567ffffffffffffffff81111561066757600080fd5b610673878288016105c5565b95989497509550505050565b60006020828403121561069157600080fd5b81356001600160a01b03811681146106a857600080fd5b9392505050565b634e487b7160e01b600052601160045260246000fd5b818103818111156106d8576106d86106af565b92915050565b634e487b7160e01b600052603260045260246000fd5b600181811c9082168061070857607f821691505b60208210810361072857634e487b7160e01b600052602260045260246000fd5b50919050565b6000815461073b816106f4565b8085526001821680156107555760018114610771576107a8565b60ff1983166020870152602082151560051b87010193506107a8565b84600052602060002060005b8381101561079f5781546020828a01015260018201915060208101905061077d565b87016020019450505b50505092915050565b6040815260006107c4604083018561072e565b82810360208401526107d6818561072e565b95945050505050565b6000600182016107f1576107f16106af565b5060010190565b634e487b7160e01b600052604160045260246000fd5b601f821115610865578282111561086557806000526020600020601f840160051c602085101561083c575060005b90810190601f840160051c0360005b818110156108615760008382015560010161084b565b5050505b505050565b67ffffffffffffffff831115610882576108826107f8565b6108968361089083546106f4565b8361080e565b6000601f8411600181146108ca57600085156108b25750838201355b600019600387901b1c1916600186901b178355610924565b600083815260209020601f19861690835b828110156108fb57868501358255602094850194600190920191016108db565b50868210156109185760001960f88860031b161c19848701351681555b505060018560011b0183555b5050505050565b81835281816020850137506000828201602090810191909152601f909101601f19169091010190565b60408152600061096860408301868861092b565b828103602084015261097b81858761092b565b97965050505050505056fea2646970667358221220b3c1bcb68ca7ef618e34bc19ae2db58c97a1ba79d00417422c83d10aa48046ed64736f6c63430008210033",
  "linkReferences": {},
  "deployedLinkReferences": {}
}