{
  "_format": "hh-sol-artifact-1",
  "contractName": "SponsorshipQueue",
  "sourceName": "contracts/SponsorshipQueue.sol",
  "abi": [
    {
      "inputs": [
        {
          "internalType": "uint256",
          "name": "estimatedCost_",
          "type": "uint256"
        }
      ],
      "stateMutability": "nonpayable",
      "type": "constructor"
    },
    {
      "inputs": [
        {
          "internalType": "address",
          "name": "owner",
          "type": "address"
        }
      ],
      "name": "OwnableInvalidOwner",
      "type": "error"
    },
    {
      "inputs": [
        {
          "internalType": "address",
          "name": "account",
          "type": "address"
        }
      ],
      "name": "OwnableUnauthorizedAccount",
      "type": "error"
    },
    {
      "anonymous": false,
      "inputs": [
        {
          "indexed": false,
          "internalType": "uint256",
          "name": "",
          "type": "uint256"
        }
      ],
      "name": "EstimatedCostUpdated",
      "type": "event"
    },
    {
      "anonymous": false,
      "inputs": [
        {
          "indexed": true,
          "internalType": "address",
          "name": "previousOwner",
          "type": "address"
        },
        {
          "indexed": true,
          "internalType": "address",
          "name": "newOwner",
          "type": "address"
        }
      ],
      "name": "OwnershipTransferred",
      "type": "event"
    },
    {
      "anonymous": false,
      "inputs": [
        {
          "indexed": false,
          "internalType": "address",
          "name": "",
          "type": "address"
        }
      ],
      "name": "QueueHandlerUpdated",
      "type": "event"
    },
    {
      "anonymous": false,
      "inputs": [
        {
          "indexed": false,
          "internalType": "uint24",
          "name": "queueNumber",
          "type": "uint24"
        },
        {
          "indexed": true,
          "internalType": "address",
          "name": "sponsor",
          "type": "address"
        }
      ],
      "name": "SponsorshipAdded",
      "type": "event"
    },
    {
      "inputs": [],
      "name": "addSponsorship",
      "outputs": [],
      "stateMutability": "payable",
      "type": "function"
    },
    {
      "inputs": [],
      "name": "dequeue",
      "outputs": [
        {
          "components": [
            {
              "internalType": "uint256",
              "name": "estimatedCost",
              "type": "uint256"
            },
            {
              "internalType": "uint256",
              "name": "timestamp",
              "type": "uint256"
            },
            {
              "internalType": "address",
              "name": "sponsor",
              "type": "address"
            }
          ],
          "internalType": "struct Sponsorship",
          "name": "",
          "type": "tuple"
        }
      ],
      "stateMutability": "nonpayable",
      "type": "function"
    },
    {
      "inputs": [],
      "name": "estimatedCost",
      "outputs": [
        {
          "internalType": "uint256",
          "name": "",
          "type": "uint256"
        }
      ],
      "stateMutability": "view",
      "type": "function"
    },
    {
      "inputs": [],
      "name": "getLength",
      "outputs": [
        {
          "internalType": "uint256",
          "name": "",
          "type": "uint256"
        }
      ],
      "stateMutability": "view",
      "type": "function"
    },
    {
      "inputs": [],
      "name": "owner",
      "outputs": [
        {
          "internalType": "address",
          "name": "",
          "type": "address"
        }
      ],
      "stateMutability": "view",
      "type": "function"
    },
    {
      "inputs": [
        {
          "internalType": "address",
          "name": "distributor",
          "type": "address"
        },
        {
          "components": [
            {
              "internalType": "uint256",
              "name": "estimatedCost",
              "type": "uint256"
            },
            {
              "internalType": "uint256",
              "name": "timestamp",
              "type": "uint256"
            },
            {
              "internalType": "address",
              "name": "sponsor",
              "type": "address"
            }
          ],
          "internalType": "struct Sponsorship",
          "name": "sponsorship",
          "type": "tuple"
        }
      ],
      "name": "payDistributor",
      "outputs": [],
      "stateMutability": "nonpayable",
      "type": "function"
    },
    {
      "inputs": [],
      "name": "protocolVersion",
      "outputs": [
        {
          "internalType": "string",
          "name": "",
          "type": "string"
        }
      ],
      "stateMutability": "pure",
      "type": "function"
    },
    {
      "inputs": [
        {
          "internalType": "uint24",
          "name": "",
          "type": "uint24"
        }
      ],
      "name": "queue",
      "outputs": [
        {
          "internalType": "uint256",
          "name": "estimatedCost",
          "type": "uint256"
        },
        {
          "internalType": "uint256",
          "name": "timestamp",
          "type": "uint256"
        },
        {
          "internalType": "address",
          "name": "sponsor",
          "type": "address"
        }
      ],
      "stateMutability": "view",
      "type": "function"
    },
    {
      "inputs": [],
      "name": "queueHandler",
      "outputs": [
        {
          "internalType": "address",
          "name": "",
          "type": "address"
        }
      ],
      "stateMutability": "view",
      "type": "function"
    },
    {
      "inputs": [],
      "name": "queueNumberFront",
      "outputs": [
        {
          "internalType": "uint24",
          "name": "",
          "type": "uint24"
        }
      ],
      "stateMutability": "view",
      "type": "function"
    },
    {
      "inputs": [],
      "name": "queueNumberNext",
      "outputs": [
        {
          "internalType": "uint24",
          "name": "",
          "type": "uint24"
        }
      ],
      "stateMutability": "view",
      "type": "function"
    },
    {
      "inputs": [],
      "name": "renounceOwnership",
      "outputs": [],
      "stateMutability": "nonpayable",
      "type": "function"
    },
    {
      "inputs": [
        {
          "internalType": "address",
          "name": "newOwner",
          "type": "address"
        }
      ],
      "name": "transferOwnership",
      "outputs": [],
      "stateMutability": "nonpayable",
      "type": "function"
    },
    {
      "inputs": [
        {
          "internalType": "uint256",
          "name": "estimatedCost_",
          "type": "uint256"
        }
      ],
      "name": "updateEstimatedCost",
      "outputs": [],
      "stateMutability": "nonpayable",
      "type": "function"
    },
    {
      "inputs": [
        {
          "internalType": "address",
          "name": "queueHandler_",
          "type": "address"
        }
      ],
      "name": "updateQueueHandler",
      "outputs": [],
      "stateMutability": "nonpayable",
      "type": "function"
    }
  ],
  "bytecode": "0x60806040526004805465ffffffffffff19166301000001179055348015602457600080fd5b50604051610b37380380610b3783398101604081905260419160c5565b3380606657604051631e4fbdf760e01b81526000600482015260240160405180910390fd5b606d816075565b5060015560dd565b600080546001600160a01b038381166001600160a01b0319831681178455604051919092169283917f8be0079c531659141344cd1fd0a4f28419497f9722a3daafe3b4186f6b6457e09190a35050565b60006020828403121560d657600080fd5b5051919050565b610a4b806100ec6000396000f3fe6080604052600436106100e85760003560e01c8063715018a61161008a578063be1c766b11610059578063be1c766b14610292578063c62a7317146102b5578063d6ed2f061461031e578063f2fde38b1461033457600080fd5b8063715018a6146101e75780638849a433146101fc5780638da5cb5b14610234578063957908d11461025257600080fd5b80633a010af4116100c65780633a010af41461017c578063423e36491461019c5780636e28e29c146101bf57806370b62b49146101c757600080fd5b806313ae19b3146100ed5780632ae9c6001461010f5780632fb0b6591461014c575b600080fd5b3480156100f957600080fd5b5061010d610108366004610881565b610354565b005b34801561011b57600080fd5b506040805180820182526005815264302e392e3960d81b6020820152905161014391906108a3565b60405180910390f35b34801561015857600080fd5b506004546101689062ffffff1681565b60405162ffffff9091168152602001610143565b34801561018857600080fd5b5061010d6101973660046108f1565b6103b1565b3480156101a857600080fd5b50600454610168906301000000900462ffffff1681565b61010d61045e565b3480156101d357600080fd5b5061010d6101e2366004610985565b61053a565b3480156101f357600080fd5b5061010d610577565b34801561020857600080fd5b5060025461021c906001600160a01b031681565b6040516001600160a01b039091168152602001610143565b34801561024057600080fd5b506000546001600160a01b031661021c565b34801561025e57600080fd5b5061026761058b565b604080518251815260208084015190820152918101516001600160a01b031690820152606001610143565b34801561029e57600080fd5b506102a76106f0565b604051908152602001610143565b3480156102c157600080fd5b506102fa6102d036600461099e565b6003602052600090815260409020805460018201546002909201549091906001600160a01b031683565b6040805193845260208401929092526001600160a01b031690820152606001610143565b34801561032a57600080fd5b506102a760015481565b34801561034057600080fd5b5061010d61034f366004610881565b610719565b61035c610757565b600280546001600160a01b0319166001600160a01b0383169081179091556040519081527f05ec78f77a1d48e6e47c6b09252624424c3402b3a8e99a48e59f0d710d7e7742906020015b60405180910390a150565b6002546001600160a01b031633146104235760405162461bcd60e51b815260206004820152602a60248201527f4f6e6c79207468652071756575652068616e646c65722063616e2070726f63656044820152697373207061796f75747360b01b60648201526084015b60405180910390fd5b80516040516001600160a01b0384169180156108fc02916000818181858888f19350505050158015610459573d6000803e3d6000fd5b505050565b60015434146104bb5760405162461bcd60e51b8152602060048201526024808201527f4d7573742073656e642065786163746c792074686520657374696d617465642060448201526318dbdcdd60e21b606482015260840161041a565b60408051606081018252600154815242602082015233918101919091526104e181610784565b60045433907fbb91fb9bfe51471bb42d76b85b3ed9941cb55f223dbaee1057bcc238411eb30990610520906001906301000000900462ffffff166109d9565b60405162ffffff909116815260200160405180910390a250565b610542610757565b60018190556040518181527f33c78a8bf87e9543dd141ff0b40c84fcd144e6d54cadbce6b444da8581108870906020016103a6565b61057f610757565b6105896000610815565b565b6105b86040518060600160405280600081526020016000815260200160006001600160a01b031681525090565b6002546001600160a01b0316331461062b5760405162461bcd60e51b815260206004820152603060248201527f4f6e6c79207468652071756575652068616e646c65722063616e2072656d6f7660448201526f652066726f6d2074686520717565756560801b606482015260840161041a565b60006106356106f0565b116106735760405162461bcd60e51b815260206004820152600e60248201526d517565756520697320656d70747960901b604482015260640161041a565b6004805462ffffff166000818152600360209081526040808320815160608101835281548152600182810154948201949094526002909101546001600160a01b0316918101919091529390929091906106cd9084906109fa565b92506101000a81548162ffffff021916908362ffffff1602179055508091505090565b60045460009061070f9062ffffff8082169163010000009004166109d9565b62ffffff16905090565b610721610757565b6001600160a01b03811661074b57604051631e4fbdf760e01b81526000600482015260240161041a565b61075481610815565b50565b6000546001600160a01b031633146105895760405163118cdaa760e01b815233600482015260240161041a565b6004805463010000009081900462ffffff908116600090815260036020818152604092839020875181559087015160018083019190915592870151600290910180546001600160a01b0319166001600160a01b03909216919091179055845491949390926107f69286929004166109fa565b92506101000a81548162ffffff021916908362ffffff16021790555050565b600080546001600160a01b038381166001600160a01b0319831681178455604051919092169283917f8be0079c531659141344cd1fd0a4f28419497f9722a3daafe3b4186f6b6457e09190a35050565b80356001600160a01b038116811461087c57600080fd5b919050565b60006020828403121561089357600080fd5b61089c82610865565b9392505050565b602081526000825180602084015260005b818110156108d157602081860181015160408684010152016108b4565b506000604082850101526040601f19601f83011684010191505092915050565b600080828403608081121561090557600080fd5b61090e84610865565b92506060601f198201121561092257600080fd5b506040516060810181811067ffffffffffffffff8211171561095457634e487b7160e01b600052604160045260246000fd5b60409081526020858101358352908501359082015261097560608501610865565b6040820152809150509250929050565b60006020828403121561099757600080fd5b5035919050565b6000602082840312156109b057600080fd5b813562ffffff8116811461089c57600080fd5b634e487b7160e01b600052601160045260246000fd5b62ffffff82811682821603908111156109f4576109f46109c3565b92915050565b62ffffff81811683821601908111156109f4576109f46109c356fea264697066735822122020399e11f0a32c026d346378d6082ac4ff5de76e1b552675ce5f9ff3ff673dee64736f6c63430008210033",
  "linkReferences": {},
  "deployedLinkReferences": {}
}